{
  "contractName": "FlightSuretyApp",
  "abi": [
    {
      "constant": true,
      "inputs": [],
      "name": "AIRLINE_NUM_BEFORE_CONS",
      "outputs": [
        {
          "name": "",
          "type": "uint256"
        }
      ],
      "payable": false,
      "stateMutability": "view",
      "type": "function"
    },
    {
      "constant": true,
      "inputs": [],
      "name": "REGISTRATION_FEE_AIRLINES",
      "outputs": [
        {
          "name": "",
          "type": "uint256"
        }
      ],
      "payable": false,
      "stateMutability": "view",
      "type": "function"
    },
    {
      "constant": true,
      "inputs": [],
      "name": "REGISTRATION_FEE",
      "outputs": [
        {
          "name": "",
          "type": "uint256"
        }
      ],
      "payable": false,
      "stateMutability": "view",
      "type": "function"
    },
    {
      "constant": true,
      "inputs": [],
      "name": "MIN_RESPONSES",
      "outputs": [
        {
          "name": "",
          "type": "uint256"
        }
      ],
      "payable": false,
      "stateMutability": "view",
      "type": "function"
    },
    {
      "constant": true,
      "inputs": [],
      "name": "MAX_INSURANCE_PASSENGER",
      "outputs": [
        {
          "name": "",
          "type": "uint256"
        }
      ],
      "payable": false,
      "stateMutability": "view",
      "type": "function"
    },
    {
      "constant": true,
      "inputs": [
        {
          "name": "",
          "type": "address"
        }
      ],
      "name": "oracles",
      "outputs": [
        {
          "name": "isRegistered",
          "type": "bool"
        }
      ],
      "payable": false,
      "stateMutability": "view",
      "type": "function"
    },
    {
      "inputs": [
        {
          "name": "dataContract",
          "type": "address"
        }
      ],
      "payable": false,
      "stateMutability": "nonpayable",
      "type": "constructor"
    },
    {
      "anonymous": false,
      "inputs": [
        {
          "indexed": false,
          "name": "_airline",
          "type": "address"
        }
      ],
      "name": "AirlineRegistered",
      "type": "event"
    },
    {
      "anonymous": false,
      "inputs": [
        {
          "indexed": false,
          "name": "_airline",
          "type": "address"
        }
      ],
      "name": "AirlineFunded",
      "type": "event"
    },
    {
      "anonymous": false,
      "inputs": [
        {
          "indexed": false,
          "name": "_flightNumber",
          "type": "string"
        }
      ],
      "name": "InsureesCredited",
      "type": "event"
    },
    {
      "anonymous": false,
      "inputs": [],
      "name": "PassengerInsured",
      "type": "event"
    },
    {
      "anonymous": false,
      "inputs": [
        {
          "indexed": false,
          "name": "_flight",
          "type": "string"
        }
      ],
      "name": "FlightRegistered",
      "type": "event"
    },
    {
      "anonymous": false,
      "inputs": [
        {
          "indexed": false,
          "name": "airline",
          "type": "address"
        },
        {
          "indexed": false,
          "name": "flight",
          "type": "string"
        },
        {
          "indexed": false,
          "name": "timestamp",
          "type": "uint256"
        },
        {
          "indexed": false,
          "name": "status",
          "type": "uint8"
        }
      ],
      "name": "FlightStatusInfo",
      "type": "event"
    },
    {
      "anonymous": false,
      "inputs": [
        {
          "indexed": false,
          "name": "airline",
          "type": "address"
        },
        {
          "indexed": false,
          "name": "flight",
          "type": "string"
        },
        {
          "indexed": false,
          "name": "timestamp",
          "type": "uint256"
        },
        {
          "indexed": false,
          "name": "status",
          "type": "uint8"
        }
      ],
      "name": "OracleReport",
      "type": "event"
    },
    {
      "anonymous": false,
      "inputs": [
        {
          "indexed": false,
          "name": "index",
          "type": "uint8"
        },
        {
          "indexed": false,
          "name": "airline",
          "type": "address"
        },
        {
          "indexed": false,
          "name": "flight",
          "type": "string"
        },
        {
          "indexed": false,
          "name": "timestamp",
          "type": "uint256"
        }
      ],
      "name": "OracleRequest",
      "type": "event"
    },
    {
      "anonymous": false,
      "inputs": [
        {
          "indexed": false,
          "name": "oracle",
          "type": "address"
        }
      ],
      "name": "OracleRegistered",
      "type": "event"
    },
    {
      "constant": true,
      "inputs": [],
      "name": "isOperational",
      "outputs": [
        {
          "name": "",
          "type": "bool"
        }
      ],
      "payable": false,
      "stateMutability": "view",
      "type": "function"
    },
    {
      "constant": true,
      "inputs": [
        {
          "name": "airline",
          "type": "address"
        },
        {
          "name": "flight",
          "type": "string"
        },
        {
          "name": "timestamp",
          "type": "uint256"
        }
      ],
      "name": "isFlightRegistered",
      "outputs": [
        {
          "name": "",
          "type": "bool"
        }
      ],
      "payable": false,
      "stateMutability": "view",
      "type": "function"
    },
    {
      "constant": false,
      "inputs": [
        {
          "name": "mode",
          "type": "bool"
        }
      ],
      "name": "setOperatingStatus",
      "outputs": [],
      "payable": false,
      "stateMutability": "nonpayable",
      "type": "function"
    },
    {
      "constant": false,
      "inputs": [
        {
          "name": "_airline",
          "type": "address"
        }
      ],
      "name": "registerAirline",
      "outputs": [],
      "payable": false,
      "stateMutability": "nonpayable",
      "type": "function"
    },
    {
      "constant": false,
      "inputs": [],
      "name": "fund",
      "outputs": [],
      "payable": true,
      "stateMutability": "payable",
      "type": "function"
    },
    {
      "constant": false,
      "inputs": [
        {
          "name": "time",
          "type": "uint256"
        },
        {
          "name": "_airline",
          "type": "address"
        },
        {
          "name": "flightNumber",
          "type": "string"
        }
      ],
      "name": "registerFlight",
      "outputs": [],
      "payable": false,
      "stateMutability": "nonpayable",
      "type": "function"
    },
    {
      "constant": false,
      "inputs": [
        {
          "name": "flight",
          "type": "string"
        },
        {
          "name": "time",
          "type": "uint256"
        },
        {
          "name": "airline",
          "type": "address"
        },
        {
          "name": "passenger",
          "type": "address"
        }
      ],
      "name": "insurePassenger",
      "outputs": [],
      "payable": true,
      "stateMutability": "payable",
      "type": "function"
    },
    {
      "constant": false,
      "inputs": [],
      "name": "withdrawPayout",
      "outputs": [],
      "payable": false,
      "stateMutability": "nonpayable",
      "type": "function"
    },
    {
      "constant": false,
      "inputs": [
        {
          "name": "passenger",
          "type": "address"
        },
        {
          "name": "flight",
          "type": "string"
        }
      ],
      "name": "getFlightsInsured",
      "outputs": [
        {
          "name": "status",
          "type": "bool"
        }
      ],
      "payable": false,
      "stateMutability": "nonpayable",
      "type": "function"
    },
    {
      "constant": true,
      "inputs": [
        {
          "name": "flight",
          "type": "string"
        }
      ],
      "name": "getFlightAmountInsured",
      "outputs": [
        {
          "name": "amount",
          "type": "uint256"
        }
      ],
      "payable": false,
      "stateMutability": "view",
      "type": "function"
    },
    {
      "constant": true,
      "inputs": [
        {
          "name": "passenger",
          "type": "address"
        }
      ],
      "name": "getPassengerCredits",
      "outputs": [
        {
          "name": "amount",
          "type": "uint256"
        }
      ],
      "payable": false,
      "stateMutability": "view",
      "type": "function"
    },
    {
      "constant": false,
      "inputs": [
        {
          "name": "airline",
          "type": "address"
        },
        {
          "name": "flight",
          "type": "string"
        },
        {
          "name": "timestamp",
          "type": "uint256"
        }
      ],
      "name": "fetchFlightStatus",
      "outputs": [],
      "payable": false,
      "stateMutability": "nonpayable",
      "type": "function"
    },
    {
      "constant": true,
      "inputs": [],
      "name": "getContractBalance",
      "outputs": [
        {
          "name": "balance",
          "type": "uint256"
        }
      ],
      "payable": false,
      "stateMutability": "view",
      "type": "function"
    },
    {
      "constant": false,
      "inputs": [],
      "name": "registerOracle",
      "outputs": [],
      "payable": true,
      "stateMutability": "payable",
      "type": "function"
    },
    {
      "constant": true,
      "inputs": [],
      "name": "getMyIndexes",
      "outputs": [
        {
          "name": "",
          "type": "uint8[3]"
        }
      ],
      "payable": false,
      "stateMutability": "view",
      "type": "function"
    },
    {
      "constant": false,
      "inputs": [
        {
          "name": "index",
          "type": "uint8"
        },
        {
          "name": "airline",
          "type": "address"
        },
        {
          "name": "flight",
          "type": "string"
        },
        {
          "name": "timestamp",
          "type": "uint256"
        },
        {
          "name": "statusCode",
          "type": "uint8"
        }
      ],
      "name": "submitOracleResponse",
      "outputs": [],
      "payable": false,
      "stateMutability": "nonpayable",
      "type": "function"
    },
    {
      "constant": false,
      "inputs": [
        {
          "name": "account",
          "type": "address"
        }
      ],
      "name": "generateIndexes",
      "outputs": [
        {
          "name": "",
          "type": "uint8[3]"
        }
      ],
      "payable": false,
      "stateMutability": "nonpayable",
      "type": "function"
    },
    {
      "constant": false,
      "inputs": [
        {
          "name": "account",
          "type": "address"
        }
      ],
      "name": "getRandomIndex",
      "outputs": [
        {
          "name": "",
          "type": "uint8"
        }
      ],
      "payable": false,
      "stateMutability": "nonpayable",
      "type": "function"
    }
  ],
  "bytecode": "0x608060405260016000806101000a81548160ff02191690831515021790555060006040519080825280602002602001820160405280156200004f5781602001602082028038833980820191505090505b50600190805190602001906200006792919062000188565b506000604051908082528060200260200182016040528015620000995781602001602082028038833980820191505090505b5060049080519060200190620000b192919062000188565b506000600660006101000a81548160ff021916908360ff160217905550348015620000db57600080fd5b5060405160208062003f1a8339810180604052810190808051906020019092919050505033600260006101000a81548173ffffffffffffffffffffffffffffffffffffffff021916908373ffffffffffffffffffffffffffffffffffffffff16021790555080600360006101000a81548173ffffffffffffffffffffffffffffffffffffffff021916908373ffffffffffffffffffffffffffffffffffffffff160217905550506200025d565b82805482825590600052602060002090810192821562000204579160200282015b82811115620002035782518260006101000a81548173ffffffffffffffffffffffffffffffffffffffff021916908373ffffffffffffffffffffffffffffffffffffffff16021790555091602001919060010190620001a9565b5b50905062000213919062000217565b5090565b6200025a91905b808211156200025657600081816101000a81549073ffffffffffffffffffffffffffffffffffffffff0219169055506001016200021e565b5090565b90565b613cad806200026d6000396000f30060806040526004361061013e576000357c0100000000000000000000000000000000000000000000000000000000900463ffffffff16806306c0e84114610143578063110466ed1461015a5780631a8cab8314610189578063241a53cb146101b457806327c925ee1461025f578063339d2590146102d757806354767fb9146102e15780635c828bfb1461033e5780635f1cc0e61461036957806364b4f751146103bc5780636f9fb98a146103e757806374cf8a841461041257806382913a571461048557806383b03cb31461050457806385bd65911461052f578063addd50991461055a578063b60d4288146105b5578063bdfd9877146105bf578063c10f270014610602578063c55462f614610681578063cd02ac68146106d8578063cd905dff14610727578063f7f813d414610756578063f83f11c0146107bb575b600080fd5b34801561014f57600080fd5b50610158610820565b005b34801561016657600080fd5b506101876004803603810190808035151590602001909291905050506108f7565b005b34801561019557600080fd5b5061019e610dcf565b6040518082815260200191505060405180910390f35b3480156101c057600080fd5b50610245600480360381019080803573ffffffffffffffffffffffffffffffffffffffff169060200190929190803590602001908201803590602001908080601f016020809104026020016040519081016040528093929190818152602001838380828437820191505050505050919291929080359060200190929190505050610dd4565b604051808215151515815260200191505060405180910390f35b6102d560048036038101908080359060200190820180359060200191909192939192939080359060200190929190803573ffffffffffffffffffffffffffffffffffffffff169060200190929190803573ffffffffffffffffffffffffffffffffffffffff169060200190929190505050610e1a565b005b6102df611140565b005b3480156102ed57600080fd5b50610322600480360381019080803573ffffffffffffffffffffffffffffffffffffffff1690602001909291905050506112cb565b604051808260ff1660ff16815260200191505060405180910390f35b34801561034a57600080fd5b5061035361142d565b6040518082815260200191505060405180910390f35b34801561037557600080fd5b5061037e611439565b6040518082600360200280838360005b838110156103a957808201518184015260208101905061038e565b5050505090500191505060405180910390f35b3480156103c857600080fd5b506103d16115ae565b6040518082815260200191505060405180910390f35b3480156103f357600080fd5b506103fc6115ba565b6040518082815260200191505060405180910390f35b34801561041e57600080fd5b5061046b600480360381019080803573ffffffffffffffffffffffffffffffffffffffff169060200190929190803590602001908201803590602001919091929391929390505050611682565b604051808215151515815260200191505060405180910390f35b34801561049157600080fd5b506104c6600480360381019080803573ffffffffffffffffffffffffffffffffffffffff1690602001909291905050506117a7565b6040518082600360200280838360005b838110156104f15780820151818401526020810190506104d6565b5050505090500191505060405180910390f35b34801561051057600080fd5b5061051961194d565b6040518082815260200191505060405180910390f35b34801561053b57600080fd5b50610544611952565b6040518082815260200191505060405180910390f35b34801561056657600080fd5b5061059b600480360381019080803573ffffffffffffffffffffffffffffffffffffffff16906020019092919050505061195e565b604051808215151515815260200191505060405180910390f35b6105bd611989565b005b3480156105cb57600080fd5b50610600600480360381019080803573ffffffffffffffffffffffffffffffffffffffff169060200190929190505050611e05565b005b34801561060e57600080fd5b5061067f600480360381019080803560ff169060200190929190803573ffffffffffffffffffffffffffffffffffffffff16906020019092919080359060200190820180359060200191909192939192939080359060200190929190803560ff1690602001909291905050506124c1565b005b34801561068d57600080fd5b506106c2600480360381019080803573ffffffffffffffffffffffffffffffffffffffff169060200190929190505050612ad8565b6040518082815260200191505060405180910390f35b3480156106e457600080fd5b50610711600480360381019080803590602001908201803590602001919091929391929390505050612c82565b6040518082815260200191505060405180910390f35b34801561073357600080fd5b5061073c612d72565b604051808215151515815260200191505060405180910390f35b34801561076257600080fd5b506107b960048036038101908080359060200190929190803573ffffffffffffffffffffffffffffffffffffffff169060200190929190803590602001908201803590602001919091929391929390505050612d88565b005b3480156107c757600080fd5b5061081e600480360381019080803573ffffffffffffffffffffffffffffffffffffffff169060200190929190803590602001908201803590602001919091929391929390803590602001909291905050506130ec565b005b600360009054906101000a900473ffffffffffffffffffffffffffffffffffffffff1673ffffffffffffffffffffffffffffffffffffffff166351cff8d9336040518263ffffffff167c0100000000000000000000000000000000000000000000000000000000028152600401808273ffffffffffffffffffffffffffffffffffffffff1673ffffffffffffffffffffffffffffffffffffffff168152602001915050600060405180830381600087803b1580156108dd57600080fd5b505af11580156108f1573d6000803e3d6000fd5b50505050565b6000806000809054906101000a900460ff1615156109a3576040517f08c379a00000000000000000000000000000000000000000000000000000000081526004018080602001828103825260258152602001807f436f6e74726163742069732063757272656e746c79206e6f74206f706572617481526020017f696f6e616c00000000000000000000000000000000000000000000000000000081525060400191505060405180910390fd5b6000809054906101000a900460ff16151583151514151515610a53576040517f08c379a000000000000000000000000000000000000000000000000000000000815260040180806020018281038252602d8152602001807f4e6577206d6f6465206d75737420626520646966666572656e742066726f6d2081526020017f6578697374696e67206d6f64650000000000000000000000000000000000000081525060400191505060405180910390fd5b600360009054906101000a900473ffffffffffffffffffffffffffffffffffffffff1673ffffffffffffffffffffffffffffffffffffffff16635689b249336040518263ffffffff167c0100000000000000000000000000000000000000000000000000000000028152600401808273ffffffffffffffffffffffffffffffffffffffff1673ffffffffffffffffffffffffffffffffffffffff168152602001915050602060405180830381600087803b158015610b1057600080fd5b505af1158015610b24573d6000803e3d6000fd5b505050506040513d6020811015610b3a57600080fd5b81019080805190602001909291905050501515610bbf576040517f08c379a000000000000000000000000000000000000000000000000000000000815260040180806020018281038252601f8152602001807f43616c6c6572206973206e6f7420612066756e646564206169726c696e652e0081525060200191505060405180910390fd5b60009150600090505b600180549050811015610c58573373ffffffffffffffffffffffffffffffffffffffff16600182815481101515610bfb57fe5b9060005260206000200160009054906101000a900473ffffffffffffffffffffffffffffffffffffffff1673ffffffffffffffffffffffffffffffffffffffff161415610c4b5760019150610c58565b8080600101915050610bc8565b81151515610cf4576040517f08c379a00000000000000000000000000000000000000000000000000000000081526004018080602001828103825260288152602001807f43616c6c65722068617320616c72656164792063616c6c65642074686973206681526020017f756e6374696f6e2e00000000000000000000000000000000000000000000000081525060400191505060405180910390fd5b60013390806001815401808255809150509060018203906000526020600020016000909192909190916101000a81548173ffffffffffffffffffffffffffffffffffffffff021916908373ffffffffffffffffffffffffffffffffffffffff160217905550506003600180549050101515610dca57826000806101000a81548160ff0219169083151502179055506000604051908082528060200260200182016040528015610db25781602001602082028038833980820191505090505b5060019080519060200190610dc8929190613a22565b505b505050565b600481565b600080610de2858585613356565b905060056000826000191660001916815260200190815260200160002060000160009054906101000a900460ff169150509392505050565b6000809054906101000a900460ff161515610ec3576040517f08c379a00000000000000000000000000000000000000000000000000000000081526004018080602001828103825260258152602001807f436f6e74726163742069732063757272656e746c79206e6f74206f706572617481526020017f696f6e616c00000000000000000000000000000000000000000000000000000081525060400191505060405180910390fd5b670de0b6b3a76400003411151515610f69576040517f08c379a00000000000000000000000000000000000000000000000000000000081526004018080602001828103825260218152602001807f50617373656e676572732063616e207061792061206d6178206f66203120455481526020017f480000000000000000000000000000000000000000000000000000000000000081525060400191505060405180910390fd5b600360009054906101000a900473ffffffffffffffffffffffffffffffffffffffff1673ffffffffffffffffffffffffffffffffffffffff166108fc349081150290604051600060405180830381858888f19350505050158015610fd1573d6000803e3d6000fd5b50600360009054906101000a900473ffffffffffffffffffffffffffffffffffffffff1673ffffffffffffffffffffffffffffffffffffffff1663c6a5d72f8686868533346040518763ffffffff167c010000000000000000000000000000000000000000000000000000000002815260040180806020018681526020018573ffffffffffffffffffffffffffffffffffffffff1673ffffffffffffffffffffffffffffffffffffffff1681526020018473ffffffffffffffffffffffffffffffffffffffff1673ffffffffffffffffffffffffffffffffffffffff16815260200183815260200182810382528888828181526020019250808284378201915050975050505050505050600060405180830381600087803b1580156110f557600080fd5b505af1158015611109573d6000803e3d6000fd5b505050507f344e0c730ff640331685c4c29b55a809b1596be6a6eb7b8e298fdae0baade96960405160405180910390a15050505050565b611148613aac565b670de0b6b3a764000034101515156111c8576040517f08c379a000000000000000000000000000000000000000000000000000000000815260040180806020018281038252601c8152602001807f526567697374726174696f6e206665652069732072657175697265640000000081525060200191505060405180910390fd5b6111d1336117a7565b9050604080519081016040528060011515815260200182815250600760003373ffffffffffffffffffffffffffffffffffffffff1673ffffffffffffffffffffffffffffffffffffffff16815260200190815260200160002060008201518160000160006101000a81548160ff021916908315150217905550602082015181600101906003611261929190613acf565b509050507fd9d9fdcc9f936c76b5aafe54fc3db5dcec0c6583c9ccc4abe91d17575c5145a533604051808273ffffffffffffffffffffffffffffffffffffffff1673ffffffffffffffffffffffffffffffffffffffff16815260200191505060405180910390a150565b6000806000600a91508160ff166006600081819054906101000a900460ff168092919060010191906101000a81548160ff021916908360ff16021790555060ff16430340856040516020018083600019166000191681526020018273ffffffffffffffffffffffffffffffffffffffff1673ffffffffffffffffffffffffffffffffffffffff166c01000000000000000000000000028152601401925050506040516020818303038152906040526040518082805190602001908083835b6020831015156113ae5780518252602082019150602081019050602083039250611389565b6001836020036101000a0380198251168184511680821785525050505050509050019150506040518091039020600190048115156113e857fe5b06905060fa600660009054906101000a900460ff1660ff161115611423576000600660006101000a81548160ff021916908360ff1602179055505b8092505050919050565b678ac7230489e8000081565b611441613aac565b600760003373ffffffffffffffffffffffffffffffffffffffff1673ffffffffffffffffffffffffffffffffffffffff16815260200190815260200160002060000160009054906101000a900460ff161515611505576040517f08c379a000000000000000000000000000000000000000000000000000000000815260040180806020018281038252601b8152602001807f4e6f74207265676973746572656420617320616e206f7261636c65000000000081525060200191505060405180910390fd5b600760003373ffffffffffffffffffffffffffffffffffffffff1673ffffffffffffffffffffffffffffffffffffffff1681526020019081526020016000206001016003806020026040519081016040528092919082600380156115a4576020028201916000905b82829054906101000a900460ff1660ff168152602001906001019060208260000104928301926001038202915080841161156d5790505b5050505050905090565b670de0b6b3a764000081565b6000600360009054906101000a900473ffffffffffffffffffffffffffffffffffffffff1673ffffffffffffffffffffffffffffffffffffffff16636f9fb98a6040518163ffffffff167c0100000000000000000000000000000000000000000000000000000000028152600401602060405180830381600087803b15801561164257600080fd5b505af1158015611656573d6000803e3d6000fd5b505050506040513d602081101561166c57600080fd5b8101908080519060200190929190505050905090565b6000600360009054906101000a900473ffffffffffffffffffffffffffffffffffffffff1673ffffffffffffffffffffffffffffffffffffffff166374cf8a848585856040518463ffffffff167c0100000000000000000000000000000000000000000000000000000000028152600401808473ffffffffffffffffffffffffffffffffffffffff1673ffffffffffffffffffffffffffffffffffffffff1681526020018060200182810382528484828181526020019250808284378201915050945050505050602060405180830381600087803b15801561176357600080fd5b505af1158015611777573d6000803e3d6000fd5b505050506040513d602081101561178d57600080fd5b810190808051906020019092919050505090509392505050565b6117af613aac565b6117b7613aac565b6117c0836112cb565b8160006003811015156117cf57fe5b602002019060ff16908160ff16815250508060006003811015156117ef57fe5b602002015181600160038110151561180357fe5b602002019060ff16908160ff16815250505b80600060038110151561182457fe5b602002015160ff1681600160038110151561183b57fe5b602002015160ff16141561187757611852836112cb565b81600160038110151561186157fe5b602002019060ff16908160ff1681525050611815565b80600160038110151561188657fe5b602002015181600260038110151561189a57fe5b602002019060ff16908160ff16815250505b8060006003811015156118bb57fe5b602002015160ff168160026003811015156118d257fe5b602002015160ff16148061191157508060016003811015156118f057fe5b602002015160ff1681600260038110151561190757fe5b602002015160ff16145b156119445761191f836112cb565b81600260038110151561192e57fe5b602002019060ff16908160ff16815250506118ac565b80915050919050565b600381565b670de0b6b3a764000081565b60076020528060005260406000206000915090508060000160009054906101000a900460ff16905081565b6000809054906101000a900460ff161515611a32576040517f08c379a00000000000000000000000000000000000000000000000000000000081526004018080602001828103825260258152602001807f436f6e74726163742069732063757272656e746c79206e6f74206f706572617481526020017f696f6e616c00000000000000000000000000000000000000000000000000000081525060400191505060405180910390fd5b678ac7230489e8000034141515611ad7576040517f08c379a00000000000000000000000000000000000000000000000000000000081526004018080602001828103825260318152602001807f4e6f7420656e6f75676820457468657220746f2066756e64206169726c696e6581526020017f2e2052657175697265732031302045544800000000000000000000000000000081525060400191505060405180910390fd5b60001515600360009054906101000a900473ffffffffffffffffffffffffffffffffffffffff1673ffffffffffffffffffffffffffffffffffffffff16635689b249336040518263ffffffff167c0100000000000000000000000000000000000000000000000000000000028152600401808273ffffffffffffffffffffffffffffffffffffffff1673ffffffffffffffffffffffffffffffffffffffff168152602001915050602060405180830381600087803b158015611b9857600080fd5b505af1158015611bac573d6000803e3d6000fd5b505050506040513d6020811015611bc257600080fd5b81019080805190602001909291905050501515141515611c4a576040517f08c379a00000000000000000000000000000000000000000000000000000000081526004018080602001828103825260198152602001807f4169726c696e6520697320616c72656164792066756e6465640000000000000081525060200191505060405180910390fd5b600360009054906101000a900473ffffffffffffffffffffffffffffffffffffffff1673ffffffffffffffffffffffffffffffffffffffff1663eee92395678ac7230489e80000336040518363ffffffff167c0100000000000000000000000000000000000000000000000000000000028152600401808381526020018273ffffffffffffffffffffffffffffffffffffffff1673ffffffffffffffffffffffffffffffffffffffff16815260200192505050600060405180830381600087803b158015611d1757600080fd5b505af1158015611d2b573d6000803e3d6000fd5b50505050600360009054906101000a900473ffffffffffffffffffffffffffffffffffffffff1673ffffffffffffffffffffffffffffffffffffffff166108fc678ac7230489e800009081150290604051600060405180830381858888f19350505050158015611d9f573d6000803e3d6000fd5b507f3c348ba34685212d5d04f432a9e569b642b180df0227a6b0c899050c4acb7af833604051808273ffffffffffffffffffffffffffffffffffffffff1673ffffffffffffffffffffffffffffffffffffffff16815260200191505060405180910390a1565b60008060008060008060008060009054906101000a900460ff161515611eb9576040517f08c379a00000000000000000000000000000000000000000000000000000000081526004018080602001828103825260258152602001807f436f6e74726163742069732063757272656e746c79206e6f74206f706572617481526020017f696f6e616c00000000000000000000000000000000000000000000000000000081525060400191505060405180910390fd5b600360009054906101000a900473ffffffffffffffffffffffffffffffffffffffff1673ffffffffffffffffffffffffffffffffffffffff1663b9e5a4436040518163ffffffff167c0100000000000000000000000000000000000000000000000000000000028152600401602060405180830381600087803b158015611f3f57600080fd5b505af1158015611f53573d6000803e3d6000fd5b505050506040513d6020811015611f6957600080fd5b81019080805190602001909291905050509650600195506000945060048710151561233d57600360009054906101000a900473ffffffffffffffffffffffffffffffffffffffff1673ffffffffffffffffffffffffffffffffffffffff1663c3c5a547336040518263ffffffff167c0100000000000000000000000000000000000000000000000000000000028152600401808273ffffffffffffffffffffffffffffffffffffffff1673ffffffffffffffffffffffffffffffffffffffff168152602001915050602060405180830381600087803b15801561204b57600080fd5b505af115801561205f573d6000803e3d6000fd5b505050506040513d602081101561207557600080fd5b810190808051906020019092919050505093506001151584151514151561212a576040517f08c379a00000000000000000000000000000000000000000000000000000000081526004018080602001828103825260228152602001807f43616c6c6572206973206e6f7420612072656769737465726564206169726c6981526020017f6e6500000000000000000000000000000000000000000000000000000000000081525060400191505060405180910390fd5b6000925060009550600091505b6004805490508210156121c7573373ffffffffffffffffffffffffffffffffffffffff1660048381548110151561216a57fe5b9060005260206000200160009054906101000a900473ffffffffffffffffffffffffffffffffffffffff1673ffffffffffffffffffffffffffffffffffffffff1614156121ba57600192506121c7565b8180600101925050612137565b82151515612263576040517f08c379a00000000000000000000000000000000000000000000000000000000081526004018080602001828103825260288152602001807f43616c6c65722068617320616c72656164792063616c6c65642074686973206681526020017f756e6374696f6e2e00000000000000000000000000000000000000000000000081525060400191505060405180910390fd5b60043390806001815401808255809150509060018203906000526020600020016000909192909190916101000a81548173ffffffffffffffffffffffffffffffffffffffff021916908373ffffffffffffffffffffffffffffffffffffffff1602179055505060048054905094506122e560028861347b90919063ffffffff16565b9050808510151561233c576001955060006040519080825280602002602001820160405280156123245781602001602082028038833980820191505090505b506004908051906020019061233a929190613a22565b505b5b6001151586151514156124b757600360009054906101000a900473ffffffffffffffffffffffffffffffffffffffff1673ffffffffffffffffffffffffffffffffffffffff1663c7ba501889336040518363ffffffff167c0100000000000000000000000000000000000000000000000000000000028152600401808373ffffffffffffffffffffffffffffffffffffffff1673ffffffffffffffffffffffffffffffffffffffff1681526020018273ffffffffffffffffffffffffffffffffffffffff1673ffffffffffffffffffffffffffffffffffffffff16815260200192505050600060405180830381600087803b15801561243b57600080fd5b505af115801561244f573d6000803e3d6000fd5b505050507f89a6354fb229eda6cbc28306798727b4d524818d2c375220bc3f360f24cffaca88604051808273ffffffffffffffffffffffffffffffffffffffff1673ffffffffffffffffffffffffffffffffffffffff16815260200191505060405180910390a15b5050505050505050565b60008660ff16600760003373ffffffffffffffffffffffffffffffffffffffff1673ffffffffffffffffffffffffffffffffffffffff168152602001908152602001600020600101600060038110151561251757fe5b602091828204019190069054906101000a900460ff1660ff1614806125a657508660ff16600760003373ffffffffffffffffffffffffffffffffffffffff1673ffffffffffffffffffffffffffffffffffffffff168152602001908152602001600020600101600160038110151561258b57fe5b602091828204019190069054906101000a900460ff1660ff16145b8061261b57508660ff16600760003373ffffffffffffffffffffffffffffffffffffffff1673ffffffffffffffffffffffffffffffffffffffff168152602001908152602001600020600101600260038110151561260057fe5b602091828204019190069054906101000a900460ff1660ff16145b15156126b5576040517f08c379a00000000000000000000000000000000000000000000000000000000081526004018080602001828103825260238152602001807f496e64657820646f6573206e6f74206d61746368206f7261636c65207265717581526020017f657374000000000000000000000000000000000000000000000000000000000081525060400191505060405180910390fd5b8686868686604051602001808660ff1660ff167f01000000000000000000000000000000000000000000000000000000000000000281526001018573ffffffffffffffffffffffffffffffffffffffff1673ffffffffffffffffffffffffffffffffffffffff166c010000000000000000000000000281526014018484808284378201915050828152602001955050505050506040516020818303038152906040526040518082805190602001908083835b60208310151561278c5780518252602082019150602081019050602083039250612767565b6001836020036101000a0380198251168184511680821785525050505050509050019150506040518091039020905060086000826000191660001916815260200190815260200160002060000160149054906101000a900460ff161515612881576040517f08c379a000000000000000000000000000000000000000000000000000000000815260040180806020018281038252602f8152602001807f466c69676874206f722074696d657374616d7020646f206e6f74206d6174636881526020017f206f7261636c652072657175657374000000000000000000000000000000000081525060400191505060405180910390fd5b60086000826000191660001916815260200190815260200160002060010160008360ff1660ff1681526020019081526020016000203390806001815401808255809150509060018203906000526020600020016000909192909190916101000a81548173ffffffffffffffffffffffffffffffffffffffff021916908373ffffffffffffffffffffffffffffffffffffffff160217905550507f43c853095c2752648493c88b4baac4d580d2594ffb00c6f1d4242d844514f7838686868686604051808673ffffffffffffffffffffffffffffffffffffffff1673ffffffffffffffffffffffffffffffffffffffff168152602001806020018481526020018360ff1660ff16815260200182810382528686828181526020019250808284378201915050965050505050505060405180910390a1600360086000836000191660001916815260200190815260200160002060010160008460ff1660ff16815260200190815260200160002080549050101515612acf577fe23f5229de535c091e3b7bec2665f5d698192d3b31393066e8987b7a05076b6c8686868686604051808673ffffffffffffffffffffffffffffffffffffffff1673ffffffffffffffffffffffffffffffffffffffff168152602001806020018481526020018360ff1660ff16815260200182810382528686828181526020019250808284378201915050965050505050505060405180910390a1612ace85858080601f01602080910402602001604051908101604052809392919081815260200183838082843782019150505050505083613491565b5b50505050505050565b60008060009054906101000a900460ff161515612b83576040517f08c379a00000000000000000000000000000000000000000000000000000000081526004018080602001828103825260258152602001807f436f6e74726163742069732063757272656e746c79206e6f74206f706572617481526020017f696f6e616c00000000000000000000000000000000000000000000000000000081525060400191505060405180910390fd5b600360009054906101000a900473ffffffffffffffffffffffffffffffffffffffff1673ffffffffffffffffffffffffffffffffffffffff1663c55462f6836040518263ffffffff167c0100000000000000000000000000000000000000000000000000000000028152600401808273ffffffffffffffffffffffffffffffffffffffff1673ffffffffffffffffffffffffffffffffffffffff168152602001915050602060405180830381600087803b158015612c4057600080fd5b505af1158015612c54573d6000803e3d6000fd5b505050506040513d6020811015612c6a57600080fd5b81019080805190602001909291905050509050919050565b6000600360009054906101000a900473ffffffffffffffffffffffffffffffffffffffff1673ffffffffffffffffffffffffffffffffffffffff1663cd02ac6884846040518363ffffffff167c01000000000000000000000000000000000000000000000000000000000281526004018080602001828103825284848281815260200192508082843782019150509350505050602060405180830381600087803b158015612d2f57600080fd5b505af1158015612d43573d6000803e3d6000fd5b505050506040513d6020811015612d5957600080fd5b8101908080519060200190929190505050905092915050565b60008060009054906101000a900460ff16905090565b60008060009054906101000a900460ff161515612e33576040517f08c379a00000000000000000000000000000000000000000000000000000000081526004018080602001828103825260258152602001807f436f6e74726163742069732063757272656e746c79206e6f74206f706572617481526020017f696f6e616c00000000000000000000000000000000000000000000000000000081525060400191505060405180910390fd5b60001515612e748585858080601f01602080910402602001604051908101604052809392919081815260200183838082843782019150505050505088610dd4565b1515141515612f11576040517f08c379a00000000000000000000000000000000000000000000000000000000081526004018080602001828103825260218152602001807f5468697320666c6967687420697320616c72656164792072656769737465726581526020017f640000000000000000000000000000000000000000000000000000000000000081525060400191505060405180910390fd5b612f4e8484848080601f01602080910402602001604051908101604052809392919081815260200183838082843782019150505050505087613356565b905060a060405190810160405280600115158152602001600060ff1681526020018681526020018573ffffffffffffffffffffffffffffffffffffffff16815260200184848080601f01602080910402602001604051908101604052809392919081815260200183838082843782019150505050505081525060056000836000191660001916815260200190815260200160002060008201518160000160006101000a81548160ff02191690831515021790555060208201518160000160016101000a81548160ff021916908360ff1602179055506040820151816001015560608201518160020160006101000a81548173ffffffffffffffffffffffffffffffffffffffff021916908373ffffffffffffffffffffffffffffffffffffffff1602179055506080820151816003019080519060200190613090929190613b69565b509050507fc12949a930abfa1f117c97c1dd14276790d886abcefa3904e4d49715dca5a3358383604051808060200182810382528484828181526020019250808284378201915050935050505060405180910390a15050505050565b6000806130f8336112cb565b91508186868686604051602001808660ff1660ff167f01000000000000000000000000000000000000000000000000000000000000000281526001018573ffffffffffffffffffffffffffffffffffffffff1673ffffffffffffffffffffffffffffffffffffffff166c010000000000000000000000000281526014018484808284378201915050828152602001955050505050506040516020818303038152906040526040518082805190602001908083835b6020831015156131d157805182526020820191506020810190506020830392506131ac565b6001836020036101000a0380198251168184511680821785525050505050509050019150506040518091039020905060408051908101604052803373ffffffffffffffffffffffffffffffffffffffff1681526020016001151581525060086000836000191660001916815260200190815260200160002060008201518160000160006101000a81548173ffffffffffffffffffffffffffffffffffffffff021916908373ffffffffffffffffffffffffffffffffffffffff16021790555060208201518160000160146101000a81548160ff0219169083151502179055509050507f3ed01f2c3fc24c6b329d931e35b03e390d23497d22b3f90e15b600343e93df118287878787604051808660ff1660ff1681526020018573ffffffffffffffffffffffffffffffffffffffff1673ffffffffffffffffffffffffffffffffffffffff1681526020018060200183815260200182810382528585828181526020019250808284378201915050965050505050505060405180910390a1505050505050565b6000838383604051602001808473ffffffffffffffffffffffffffffffffffffffff1673ffffffffffffffffffffffffffffffffffffffff166c0100000000000000000000000002815260140183805190602001908083835b6020831015156133d457805182526020820191506020810190506020830392506133af565b6001836020036101000a03801982511681845116808217855250505050505090500182815260200193505050506040516020818303038152906040526040518082805190602001908083835b6020831015156134455780518252602082019150602081019050602083039250613420565b6001836020036101000a038019825116818451168082178552505050505050905001915050604051809103902090509392505050565b6000818381151561348857fe5b04905092915050565b6060600080600080601460ff168660ff1614156139e157600360009054906101000a900473ffffffffffffffffffffffffffffffffffffffff1673ffffffffffffffffffffffffffffffffffffffff16630a40389c886040518263ffffffff167c01000000000000000000000000000000000000000000000000000000000281526004018080602001828103825283818151815260200191508051906020019080838360005b83811015613552578082015181840152602081019050613537565b50505050905090810190601f16801561357f5780820380516001836020036101000a031916815260200191505b5092505050600060405180830381600087803b15801561359e57600080fd5b505af11580156135b2573d6000803e3d6000fd5b505050506040513d6000823e3d601f19601f8201168201806040525060208110156135dc57600080fd5b8101908080516401000000008111156135f457600080fd5b8281019050602081018481111561360a57600080fd5b815185602082028301116401000000008211171561362757600080fd5b5050929190505050945060009350600090505b845181101561394457848181518110151561365157fe5b906020019060200201519250600360009054906101000a900473ffffffffffffffffffffffffffffffffffffffff1673ffffffffffffffffffffffffffffffffffffffff16631b37da5588856040518363ffffffff167c010000000000000000000000000000000000000000000000000000000002815260040180806020018373ffffffffffffffffffffffffffffffffffffffff1673ffffffffffffffffffffffffffffffffffffffff168152602001828103825284818151815260200191508051906020019080838360005b8381101561373a57808201518184015260208101905061371f565b50505050905090810190601f1680156137675780820380516001836020036101000a031916815260200191505b509350505050602060405180830381600087803b15801561378757600080fd5b505af115801561379b573d6000803e3d6000fd5b505050506040513d60208110156137b157600080fd5b810190808051906020019092919050505093506137eb600a6137dd600f876139ea90919063ffffffff16565b61347b90919063ffffffff16565b9350600360009054906101000a900473ffffffffffffffffffffffffffffffffffffffff1673ffffffffffffffffffffffffffffffffffffffff16637fdf2e4d8885876040518463ffffffff167c010000000000000000000000000000000000000000000000000000000002815260040180806020018473ffffffffffffffffffffffffffffffffffffffff1673ffffffffffffffffffffffffffffffffffffffff168152602001838152602001828103825285818151815260200191508051906020019080838360005b838110156138d15780820151818401526020810190506138b6565b50505050905090810190601f1680156138fe5780820380516001836020036101000a031916815260200191505b50945050505050600060405180830381600087803b15801561391f57600080fd5b505af1158015613933573d6000803e3d6000fd5b50505050808060010191505061363a565b7f48e17a1cf5ca0f43c8887be65659a519a262eb05f8d3ed21d9be58bcb7b6f099876040518080602001828103825283818151815260200191508051906020019080838360005b838110156139a657808201518184015260208101905061398b565b50505050905090810190601f1680156139d35780820380516001836020036101000a031916815260200191505b509250505060405180910390a15b50505050505050565b6000808314156139fd5760009050613a1c565b8183029050818382811515613a0e57fe5b04141515613a1857fe5b8090505b92915050565b828054828255906000526020600020908101928215613a9b579160200282015b82811115613a9a5782518260006101000a81548173ffffffffffffffffffffffffffffffffffffffff021916908373ffffffffffffffffffffffffffffffffffffffff16021790555091602001919060010190613a42565b5b509050613aa89190613be9565b5090565b606060405190810160405280600390602082028038833980820191505090505090565b826003601f01602090048101928215613b585791602002820160005b83821115613b2957835183826101000a81548160ff021916908360ff1602179055509260200192600101602081600001049283019260010302613aeb565b8015613b565782816101000a81549060ff0219169055600101602081600001049283019260010302613b29565b505b509050613b659190613c2c565b5090565b828054600181600116156101000203166002900490600052602060002090601f016020900481019282601f10613baa57805160ff1916838001178555613bd8565b82800160010185558215613bd8579182015b82811115613bd7578251825591602001919060010190613bbc565b5b509050613be59190613c5c565b5090565b613c2991905b80821115613c2557600081816101000a81549073ffffffffffffffffffffffffffffffffffffffff021916905550600101613bef565b5090565b90565b613c5991905b80821115613c5557600081816101000a81549060ff021916905550600101613c32565b5090565b90565b613c7e91905b80821115613c7a576000816000905550600101613c62565b5090565b905600a165627a7a72305820a40eb89af0feeeba2354f48a83fe6e9ee3b0f288100f3f175148805b96a682740029",
  "source": "pragma solidity >=0.4.24;\n\n// It's important to avoid vulnerabilities due to numeric overflow bugs\n// OpenZeppelin's SafeMath library, when used correctly, protects agains such bugs\n// More info: https://www.nccgroup.trust/us/about-us/newsroom-and-events/blog/2018/november/smart-contract-insecurity-bad-arithmetic/\n\nimport \"../node_modules/openzeppelin-solidity/contracts/math/SafeMath.sol\";\n\n/************************************************** */\n/* FlightSurety Smart Contract                      */\n/************************************************** */\ncontract FlightSuretyApp {\n    using SafeMath for uint256; // Allow SafeMath functions to be called for all uint256 types (similar to \"prototype\" in Javascript)\n\n    /********************************************************************************************/\n    /*                                       DATA VARIABLES                                     */\n    /********************************************************************************************/\n\n    //Operation variables\n    uint constant M = 3; //Number of confirmations require to stop operation\n    bool private operational = true;            // Blocks all state changes throughout the contract if false\n    address[] multiCalls = new address[](0);\n\n    address private contractOwner;          // Account used to deploy contract\n    FlightSuretyData flightSuretyData;\n\n    // Flight status codees\n    uint8 private constant STATUS_CODE_UNKNOWN = 0;\n    uint8 private constant STATUS_CODE_ON_TIME = 10;\n    uint8 private constant STATUS_CODE_LATE_AIRLINE = 20;\n    uint8 private constant STATUS_CODE_LATE_WEATHER = 30;\n    uint8 private constant STATUS_CODE_LATE_TECHNICAL = 40;\n    uint8 private constant STATUS_CODE_LATE_OTHER = 50;\n\n    // Fee to be paid when registering airline\n    uint256 public constant REGISTRATION_FEE_AIRLINES = 10 ether;\n\n    // Maximum insurance fee that can be accepted\n    uint256 public constant MAX_INSURANCE_PASSENGER = 1 ether;\n\n    // Number of airlines that can register before consensus requirement\n    uint256 public constant AIRLINE_NUM_BEFORE_CONS = 4;\n    address[] consensusVotes = new address[](0); //Array to record votes for Consensus\n\n    struct Flight {\n        bool isRegistered;\n        uint8 statusCode;\n        uint256 updatedTimestamp;        \n        address airline;\n        string flightNumber;\n    }\n    mapping(bytes32 => Flight) private flights;\n\n    /********************************************************************************************/\n    /*                                       Events                                             */\n    /********************************************************************************************/\n    event AirlineRegistered(address _airline); //Event triggered when Airline is Registered\n    event AirlineFunded(address _airline); //Event triggered when Airline is Funded\n    event InsureesCredited(string _flightNumber); //Event triggered when Passenger is paid insurance\n    event PassengerInsured(); //Event triggered when passenger purchases insurance\n    event FlightRegistered(string _flight);//Event triggered when flight is registered\n\n    /********************************************************************************************/\n    /*                                       FUNCTION MODIFIERS                                 */\n    /********************************************************************************************/\n\n    // Modifiers help avoid duplication of code. They are typically used to validate something\n    // before a function is allowed to be executed.\n\n    /**\n    * @dev Modifier that requires the \"operational\" boolean variable to be \"true\"\n    *      This is used on all state changing functions to pause the contract in \n    *      the event there is an issue that needs to be fixed\n    */\n    modifier requireIsOperational() \n    {\n         // Modify to call data contract's status\n        require(operational, \"Contract is currently not operational\");  \n        _;  // All modifiers require an \"_\" which indicates where the function body will be added\n    }\n\n    /**\n    * @dev Modifier that requires the \"ContractOwner\" account to be the function caller\n    */\n    modifier requireContractOwner()\n    {\n        require(msg.sender == contractOwner, \"Caller is not contract owner\");\n        _;\n    }\n\n    /**\n    * @dev Modifier that requires the flight to be registered before it can be insured\n    */\n    modifier requireIsFlightRegistered(address airline, string memory flight, uint time)\n    {\n        require(isFlightRegistered(airline, flight, time) == true, \"Flight is not insured\");\n        _;\n    }\n\n    /********************************************************************************************/\n    /*                                       CONSTRUCTOR                                        */\n    /********************************************************************************************/\n\n    /**\n    * @dev Contract constructor\n    *\n    */\n    constructor(address dataContract) public \n    {\n        contractOwner = msg.sender;\n        flightSuretyData = FlightSuretyData(dataContract);\n    }\n\n    /********************************************************************************************/\n    /*                                       UTILITY FUNCTIONS                                  */\n    /********************************************************************************************/\n\n    function isOperational() \n                            public \n                            view \n                            returns(bool) \n    {\n        return operational;  // Modify to call data contract's status\n    }\n\n    function isFlightRegistered\n        (\n            address airline, \n            string memory flight, \n            uint timestamp\n        ) \n        public \n        view \n        returns(bool) \n    {\n        bytes32 key = getFlightKey(airline, flight, timestamp);\n        return flights[key].isRegistered;  // Modify to call data contract's status\n    }\n\n    /**\n    * @dev Sets contract operations on/off\n    *\n    * When operational mode is disabled, all write transactions except for this one will fail\n    */    \n    function setOperatingStatus\n        (\n            bool mode\n        ) \n        external\n        requireIsOperational\n    {\n        require(mode != operational, \"New mode must be different from existing mode\");\n        require(flightSuretyData.isFunded(msg.sender), \"Caller is not a funded airline.\");\n\n        bool isDuplicate = false;\n        for(uint c=0; c<multiCalls.length; c++) {\n            if (multiCalls[c] == msg.sender) {\n                isDuplicate = true;\n                break;\n            }\n        }\n        require(!isDuplicate, \"Caller has already called this function.\");\n\n        multiCalls.push(msg.sender);\n        if (multiCalls.length >= M) {\n            operational = mode;      \n            multiCalls = new address[](0);      \n        }\n    }\n\n    /********************************************************************************************/\n    /*                                     SMART CONTRACT FUNCTIONS                             */\n    /********************************************************************************************/\n\n  \n   /**\n    * @dev Add an airline to the registration queue\n    *\n    */   \n     function registerAirline\n        (\n            address _airline\n        ) \n        requireIsOperational        \n        external \n    {\n        //Check how many airlines registered\n        uint256 number = flightSuretyData._getRegisteredAirlinesNum();\n\n        bool register = true;\n        //success = false;\n        uint votes = 0;\n\n        // if number of airlines registered is greater than 4 perform the consensus check\n        if(number >= AIRLINE_NUM_BEFORE_CONS){\n            //check if caller is a registered airlines\n            bool isRegistered = flightSuretyData.isRegistered(msg.sender);\n            require(isRegistered == true, \"Caller is not a registered airline\");\n\n            bool isDuplicate = false;\n            register = false;\n            for(uint c = 0; c < consensusVotes.length; c++) {\n                if (consensusVotes[c] == msg.sender) {\n                    isDuplicate = true;\n                    break;\n                }\n            }\n            require(!isDuplicate, \"Caller has already called this function.\");\n\n            consensusVotes.push(msg.sender);\n            votes = consensusVotes.length;\n            uint check = number.div(2);\n            if (votes >= check) {\n                register = true;      \n                consensusVotes = new address[](0);      \n            }\n          \n        }\n          \n        if(register == true) {\n            flightSuretyData.registerAirline(_airline, msg.sender);\n            emit AirlineRegistered(_airline);\n        }\n        \n    } \n\n    /**\n    * @dev Initial funding for the insurance. Unless there are too many delayed flights\n    *      resulting in insurance payouts, the contract should be self-sustaining\n    *\n    */   \n    function fund () external payable requireIsOperational\n    {\n        require(msg.value == REGISTRATION_FEE_AIRLINES, \"Not enough Ether to fund airline. Requires 10 ETH\" );\n        require(flightSuretyData.isFunded(msg.sender) == false, \"Airline is already funded\");\n        flightSuretyData.fund(REGISTRATION_FEE_AIRLINES, msg.sender);\n        address(flightSuretyData).transfer(REGISTRATION_FEE_AIRLINES);\n        emit AirlineFunded(msg.sender);\n    }\n\n    \n   /**\n    * @dev Register a future flight for insuring.\n    *\n    */  \n    function registerFlight\n        (\n            uint256 time,  \n            address _airline,\n            string flightNumber\n        ) \n        external \n        requireIsOperational\n    {\n        require(isFlightRegistered(_airline, flightNumber, time) == false, \"This flight is already registered\");\n        bytes32 key = getFlightKey(_airline, flightNumber, time);\n        flights[key] = Flight({isRegistered: true, statusCode: STATUS_CODE_UNKNOWN, updatedTimestamp: time, airline: _airline, flightNumber: flightNumber});\n        emit FlightRegistered(flightNumber);\n    }\n\n    /**\n    * @dev Insure passenger for a future flight.\n    *\n    */  \n    function insurePassenger\n        (\n            string flight,\n            uint256 time,\n            address airline,\n            address passenger\n        )\n    external\n    payable\n    requireIsOperational\n    //requireIsFlightRegistered(airline, flight, time)\n    {\n        require(msg.value <= MAX_INSURANCE_PASSENGER, \"Passengers can pay a max of 1 ETH\");\n        address(flightSuretyData).transfer(msg.value);\n        flightSuretyData.buy(flight, time, passenger, msg.sender, msg.value);\n        emit PassengerInsured();\n    }\n    \n   /**\n    * @dev Called after oracle has updated flight status\n    *\n    */  \n    function processFlightStatus\n        (\n            string memory flight,\n            uint8 statusCode\n        )\n        internal\n    {\n        if(statusCode == STATUS_CODE_LATE_AIRLINE){\n            //flightSuretyData.creditInsurees(flight);\n            address[] memory passengers = flightSuretyData.getPassengersInsured(flight);\n            uint amount = 0;\n            address passenger;\n            uint index;\n            //passengers = flightSuretyData.FlightPassengers[flight];\n\n            for(uint i = 0; i < passengers.length; i++){\n                passenger = passengers[i];\n                amount = flightSuretyData.GetInsuredAmount(flight, passenger);\n                amount = amount.mul(15).div(10);\n                flightSuretyData.SetInsuredAmount(flight, passenger, amount); \n            } \n            emit InsureesCredited(flight);\n        }\n    }\n\n    /**\n    * @dev Called when passenger wants to withdraw insurance payout\n    *\n    */  \n    function withdrawPayout() external\n    {\n        flightSuretyData.withdraw(msg.sender);\n    }\n\n    /**\n    * @dev Called when passenger wants to withdraw insurance payout\n    *\n    */  \n    function getFlightsInsured\n        (\n            address passenger, \n            string flight\n        ) \n        external \n        returns\n        (\n            bool status\n        )\n    {\n        status = flightSuretyData.getFlightsInsured(passenger, flight);\n    }\n\n    function getFlightAmountInsured\n        (\n            string flight\n        )\n        external \n        view\n        returns\n        (\n            uint amount\n        )\n    {\n        amount = flightSuretyData.getFlightAmountInsured(flight);\n    }\n\n    function getPassengerCredits\n        (\n            address passenger\n        )\n        external\n        view\n        requireIsOperational\n        returns\n        (\n            uint amount\n        )\n    {\n        return flightSuretyData.getPassengerCredits(passenger);\n    }\n\n\n    // Generate a request for oracles to fetch flight information\n    function fetchFlightStatus\n        (\n            address airline,\n            string  flight,\n            uint256 timestamp                            \n        )\n        external\n    {\n        uint8 index = getRandomIndex(msg.sender);\n\n        // Generate a unique key for storing the request\n        bytes32 key = keccak256(abi.encodePacked(index, airline, flight, timestamp));\n        oracleResponses[key] = ResponseInfo({requester: msg.sender, isOpen: true});\n\n        emit OracleRequest(index, airline, flight, timestamp);\n    } \n\n    //Returns Contract Balance\n    function getContractBalance() external view returns(uint balance)\n    {\n        return flightSuretyData.getContractBalance();\n    }\n\n    \n// region ORACLE MANAGEMENT\n\n    // Incremented to add pseudo-randomness at various points\n    uint8 private nonce = 0;    \n\n    // Fee to be paid when registering oracle\n    uint256 public constant REGISTRATION_FEE = 1 ether;\n\n    // Number of oracles that must respond for valid status\n    uint256 public constant MIN_RESPONSES = 3;\n\n    struct Oracle {\n        bool isRegistered;\n        uint8[3] indexes;        \n    }\n\n    // Track all registered oracles\n    mapping(address => Oracle) public oracles;\n\n    // Model for responses from oracles\n    struct ResponseInfo {\n        address requester;                              // Account that requested status\n        bool isOpen;                                    // If open, oracle responses are accepted\n        mapping(uint8 => address[]) responses;          // Mapping key is the status code reported\n                                                        // This lets us group responses and identify\n                                                        // the response that majority of the oracles\n    }\n\n    // Track all oracle responses\n    // Key = hash(index, flight, timestamp)\n    mapping(bytes32 => ResponseInfo) private oracleResponses;\n\n    // Event fired each time an oracle submits a response\n    event FlightStatusInfo(address airline, string flight, uint256 timestamp, uint8 status);\n\n    event OracleReport(address airline, string flight, uint256 timestamp, uint8 status);\n\n    // Event fired when flight status request is submitted\n    // Oracles track this and if they have a matching index\n    // they fetch data and submit a response\n    event OracleRequest(uint8 index, address airline, string flight, uint256 timestamp);\n    event OracleRegistered(address oracle);\n\n\n    // Register an oracle with the contract\n    function registerOracle() external payable\n    {\n        // Require registration fee\n        require(msg.value >= REGISTRATION_FEE, \"Registration fee is required\");\n\n        uint8[3] memory indexes = generateIndexes(msg.sender);\n\n        oracles[msg.sender] = Oracle({isRegistered: true, indexes: indexes});\n\n        emit OracleRegistered(msg.sender);\n    }\n\n    function getMyIndexes\n        (\n        )\n        view\n        external\n        returns(uint8[3] memory)\n    {\n        require(oracles[msg.sender].isRegistered, \"Not registered as an oracle\");\n\n        return oracles[msg.sender].indexes;\n    }\n\n    // Called by oracle when a response is available to an outstanding request\n    // For the response to be accepted, there must be a pending request that is open\n    // and matches one of the three Indexes randomly assigned to the oracle at the\n    // time of registration (i.e. uninvited oracles are not welcome)\n    function submitOracleResponse\n        (\n            uint8 index,\n            address airline,\n            string  flight,\n            uint256 timestamp,\n            uint8 statusCode\n        )\n        external\n    {\n        require((oracles[msg.sender].indexes[0] == index) || (oracles[msg.sender].indexes[1] == index) || (oracles[msg.sender].indexes[2] == index), \"Index does not match oracle request\");\n\n        bytes32 key = keccak256(abi.encodePacked(index, airline, flight, timestamp)); \n        require(oracleResponses[key].isOpen, \"Flight or timestamp do not match oracle request\");\n\n        oracleResponses[key].responses[statusCode].push(msg.sender);\n\n        // Information isn't considered verified until at least MIN_RESPONSES\n        // oracles respond with the *** same *** information\n        emit OracleReport(airline, flight, timestamp, statusCode);\n        if (oracleResponses[key].responses[statusCode].length >= MIN_RESPONSES) {\n\n            emit FlightStatusInfo(airline, flight, timestamp, statusCode);\n\n            // Handle flight status as appropriate\n            processFlightStatus(flight, statusCode);\n        }\n    }\n\n    function getFlightKey\n        (\n            address airline,\n            string memory flight,\n            uint256 timestamp\n        )\n        pure\n        internal\n        returns(bytes32) \n    {\n        return keccak256(abi.encodePacked(airline, flight, timestamp));\n    }\n\n    // Returns array of three non-duplicating integers from 0-9\n    function generateIndexes\n        (                       \n            address account         \n        )\n        public\n        returns\n        (\n            uint8[3] memory\n        )\n    {\n        uint8[3] memory indexes;\n        indexes[0] = getRandomIndex(account);\n        \n        indexes[1] = indexes[0];\n        while(indexes[1] == indexes[0]) {\n            indexes[1] = getRandomIndex(account);\n        }\n\n        indexes[2] = indexes[1];\n        while((indexes[2] == indexes[0]) || (indexes[2] == indexes[1])) {\n            indexes[2] = getRandomIndex(account);\n        }\n\n        return indexes;\n    }\n\n    // Returns array of three non-duplicating integers from 0-9\n    function getRandomIndex\n        (\n            address account\n        )\n        public\n        returns (uint8)\n    {\n        uint8 maxValue = 10;\n\n        // Pseudo random number...the incrementing nonce adds variation\n        uint8 random = uint8(uint256(keccak256(abi.encodePacked(blockhash(block.number - nonce++), account))) % maxValue);\n\n        if (nonce > 250) {\n            nonce = 0;  // Can only fetch blockhashes for last 256 blocks so we adapt\n        }\n\n        return random;\n    }\n\n// endregion\n\n}   \n\ncontract FlightSuretyData {\n    function registerAirline (address _airline, address caller) external;\n    function _getRegisteredAirlinesNum() external returns(uint number);\n    function fund (uint256 fundAmt, address sender) public;\n    function creditInsurees (string  flight) external;\n    function isRegistered(address _airline) public returns(bool _reg);\n    function isFunded(address _airline) public returns(bool _reg);\n    function buy(string  flight, uint256 time, address passenger, address sender, uint256 amount) public;\n    function withdraw(address payee) external payable;\n    function getFlightsInsured(address passenger, string flight) external returns(bool status);\n    function getFlightAmountInsured(string flight) external view returns(uint amount) ;\n    function getPassengerCredits(address passenger) external view returns(uint amount);\n    function getContractBalance() external view returns(uint balance);\n    function getPassengersInsured(string  flight) external returns(address[] passengers);\n    function GetInsuredAmount(string  flight, address passenger) external returns(uint amount);\n    function SetInsuredAmount(string  flight, address passenger, uint amount) external;\n}\n",
  "sourcePath": "/Users/moathh/Desktop/GitHub_Mo/Udacity_BlockChain_Developer_Projects/FlightSurety-2/contracts/FlightSuretyApp.sol",
  "compiler": {
    "name": "solc",
    "version": "0.4.26+commit.4563c3fc.Emscripten.clang"
  },
  "schemaVersion": "3.4.6",
  "updatedAt": "2022-03-30T01:31:24.647Z",
  "devdoc": {
    "methods": {
      "fund()": {
        "details": "Initial funding for the insurance. Unless there are too many delayed flights     resulting in insurance payouts, the contract should be self-sustaining    "
      },
      "getFlightsInsured(address,string)": {
        "details": "Called when passenger wants to withdraw insurance payout    "
      },
      "insurePassenger(string,uint256,address,address)": {
        "details": "Insure passenger for a future flight.    "
      },
      "registerAirline(address)": {
        "details": "Add an airline to the registration queue    "
      },
      "registerFlight(uint256,address,string)": {
        "details": "Register a future flight for insuring.    "
      },
      "setOperatingStatus(bool)": {
        "details": "Sets contract operations on/off    * When operational mode is disabled, all write transactions except for this one will fail"
      },
      "withdrawPayout()": {
        "details": "Called when passenger wants to withdraw insurance payout    "
      }
    }
  },
  "userdoc": {
    "methods": {
      "isOperational()": {
        "notice": "*****************************************************************************************"
      }
    }
  }
}