{
  "contractName": "FlightSuretyData",
  "abi": [
    {
      "constant": true,
      "inputs": [
        {
          "name": "",
          "type": "address"
        }
      ],
      "name": "RegisteredAirlines",
      "outputs": [
        {
          "name": "isRegistered",
          "type": "bool"
        },
        {
          "name": "isFunded",
          "type": "bool"
        },
        {
          "name": "airlineAddress",
          "type": "address"
        }
      ],
      "payable": false,
      "stateMutability": "view",
      "type": "function"
    },
    {
      "constant": true,
      "inputs": [
        {
          "name": "",
          "type": "address"
        }
      ],
      "name": "InsuredPassengers",
      "outputs": [
        {
          "name": "isInsured",
          "type": "bool"
        }
      ],
      "payable": false,
      "stateMutability": "view",
      "type": "function"
    },
    {
      "inputs": [
        {
          "name": "_airline",
          "type": "address"
        }
      ],
      "payable": true,
      "stateMutability": "payable",
      "type": "constructor"
    },
    {
      "payable": true,
      "stateMutability": "payable",
      "type": "fallback"
    },
    {
      "anonymous": false,
      "inputs": [
        {
          "indexed": false,
          "name": "amt",
          "type": "uint256"
        }
      ],
      "name": "Receive",
      "type": "event"
    },
    {
      "constant": true,
      "inputs": [],
      "name": "isOperational",
      "outputs": [
        {
          "name": "",
          "type": "bool"
        }
      ],
      "payable": false,
      "stateMutability": "view",
      "type": "function"
    },
    {
      "constant": false,
      "inputs": [
        {
          "name": "_caller",
          "type": "address"
        }
      ],
      "name": "authorizeCaller",
      "outputs": [],
      "payable": false,
      "stateMutability": "nonpayable",
      "type": "function"
    },
    {
      "constant": true,
      "inputs": [
        {
          "name": "_caller",
          "type": "address"
        }
      ],
      "name": "isAuthorized",
      "outputs": [
        {
          "name": "",
          "type": "bool"
        }
      ],
      "payable": false,
      "stateMutability": "view",
      "type": "function"
    },
    {
      "constant": false,
      "inputs": [
        {
          "name": "_caller",
          "type": "address"
        }
      ],
      "name": "deAuthorizeCaller",
      "outputs": [],
      "payable": false,
      "stateMutability": "nonpayable",
      "type": "function"
    },
    {
      "constant": true,
      "inputs": [
        {
          "name": "airline",
          "type": "address"
        }
      ],
      "name": "isRegistered",
      "outputs": [
        {
          "name": "",
          "type": "bool"
        }
      ],
      "payable": false,
      "stateMutability": "view",
      "type": "function"
    },
    {
      "constant": true,
      "inputs": [
        {
          "name": "airline",
          "type": "address"
        }
      ],
      "name": "isFunded",
      "outputs": [
        {
          "name": "",
          "type": "bool"
        }
      ],
      "payable": false,
      "stateMutability": "view",
      "type": "function"
    },
    {
      "constant": true,
      "inputs": [
        {
          "name": "passenger",
          "type": "address"
        },
        {
          "name": "flight",
          "type": "string"
        }
      ],
      "name": "isInsured",
      "outputs": [
        {
          "name": "success",
          "type": "bool"
        }
      ],
      "payable": false,
      "stateMutability": "view",
      "type": "function"
    },
    {
      "constant": false,
      "inputs": [
        {
          "name": "mode",
          "type": "bool"
        }
      ],
      "name": "setOperatingStatus",
      "outputs": [],
      "payable": false,
      "stateMutability": "nonpayable",
      "type": "function"
    },
    {
      "constant": false,
      "inputs": [
        {
          "name": "_airline",
          "type": "address"
        },
        {
          "name": "caller",
          "type": "address"
        }
      ],
      "name": "registerAirline",
      "outputs": [
        {
          "name": "success",
          "type": "bool"
        }
      ],
      "payable": false,
      "stateMutability": "nonpayable",
      "type": "function"
    },
    {
      "constant": true,
      "inputs": [],
      "name": "_getRegisteredAirlinesNum",
      "outputs": [
        {
          "name": "number",
          "type": "uint256"
        }
      ],
      "payable": false,
      "stateMutability": "view",
      "type": "function"
    },
    {
      "constant": false,
      "inputs": [
        {
          "name": "flight",
          "type": "string"
        },
        {
          "name": "time",
          "type": "uint256"
        },
        {
          "name": "passenger",
          "type": "address"
        },
        {
          "name": "sender",
          "type": "address"
        },
        {
          "name": "amount",
          "type": "uint256"
        }
      ],
      "name": "buy",
      "outputs": [],
      "payable": false,
      "stateMutability": "nonpayable",
      "type": "function"
    },
    {
      "constant": false,
      "inputs": [
        {
          "name": "flight",
          "type": "string"
        }
      ],
      "name": "creditInsurees",
      "outputs": [],
      "payable": false,
      "stateMutability": "nonpayable",
      "type": "function"
    },
    {
      "constant": false,
      "inputs": [
        {
          "name": "flight",
          "type": "string"
        }
      ],
      "name": "getPassengersInsured",
      "outputs": [
        {
          "name": "passengers",
          "type": "address[]"
        }
      ],
      "payable": false,
      "stateMutability": "nonpayable",
      "type": "function"
    },
    {
      "constant": false,
      "inputs": [
        {
          "name": "flight",
          "type": "string"
        },
        {
          "name": "passenger",
          "type": "address"
        }
      ],
      "name": "GetInsuredAmount",
      "outputs": [
        {
          "name": "amount",
          "type": "uint256"
        }
      ],
      "payable": false,
      "stateMutability": "nonpayable",
      "type": "function"
    },
    {
      "constant": false,
      "inputs": [
        {
          "name": "flight",
          "type": "string"
        },
        {
          "name": "passenger",
          "type": "address"
        },
        {
          "name": "amount",
          "type": "uint256"
        }
      ],
      "name": "SetInsuredAmount",
      "outputs": [],
      "payable": false,
      "stateMutability": "nonpayable",
      "type": "function"
    },
    {
      "constant": true,
      "inputs": [
        {
          "name": "pass",
          "type": "address"
        },
        {
          "name": "flight",
          "type": "string"
        }
      ],
      "name": "getFlightIndex",
      "outputs": [
        {
          "name": "index",
          "type": "uint256"
        }
      ],
      "payable": false,
      "stateMutability": "view",
      "type": "function"
    },
    {
      "constant": false,
      "inputs": [
        {
          "name": "payee",
          "type": "address"
        }
      ],
      "name": "withdraw",
      "outputs": [],
      "payable": true,
      "stateMutability": "payable",
      "type": "function"
    },
    {
      "constant": false,
      "inputs": [
        {
          "name": "fundAmt",
          "type": "uint256"
        },
        {
          "name": "sender",
          "type": "address"
        }
      ],
      "name": "fund",
      "outputs": [],
      "payable": false,
      "stateMutability": "nonpayable",
      "type": "function"
    },
    {
      "constant": true,
      "inputs": [
        {
          "name": "passenger",
          "type": "address"
        },
        {
          "name": "flight",
          "type": "string"
        }
      ],
      "name": "getFlightsInsured",
      "outputs": [
        {
          "name": "status",
          "type": "bool"
        }
      ],
      "payable": false,
      "stateMutability": "view",
      "type": "function"
    },
    {
      "constant": true,
      "inputs": [
        {
          "name": "flight",
          "type": "string"
        }
      ],
      "name": "getFlightAmountInsured",
      "outputs": [
        {
          "name": "amount",
          "type": "uint256"
        }
      ],
      "payable": false,
      "stateMutability": "view",
      "type": "function"
    },
    {
      "constant": true,
      "inputs": [
        {
          "name": "passenger",
          "type": "address"
        }
      ],
      "name": "getPassengerCredits",
      "outputs": [
        {
          "name": "amount",
          "type": "uint256"
        }
      ],
      "payable": false,
      "stateMutability": "view",
      "type": "function"
    },
    {
      "constant": true,
      "inputs": [],
      "name": "getContractBalance",
      "outputs": [
        {
          "name": "balance",
          "type": "uint256"
        }
      ],
      "payable": false,
      "stateMutability": "view",
      "type": "function"
    },
    {
      "constant": true,
      "inputs": [],
      "name": "getAddressBalance",
      "outputs": [
        {
          "name": "balance",
          "type": "uint256"
        }
      ],
      "payable": false,
      "stateMutability": "view",
      "type": "function"
    },
    {
      "constant": false,
      "inputs": [],
      "name": "receive",
      "outputs": [],
      "payable": true,
      "stateMutability": "payable",
      "type": "function"
    },
    {
      "constant": true,
      "inputs": [],
      "name": "testFunction",
      "outputs": [
        {
          "name": "success",
          "type": "bool"
        }
      ],
      "payable": false,
      "stateMutability": "view",
      "type": "function"
    },
    {
      "constant": true,
      "inputs": [
        {
          "name": "passenger",
          "type": "address"
        }
      ],
      "name": "testFunction2",
      "outputs": [
        {
          "name": "amount",
          "type": "uint256"
        }
      ],
      "payable": false,
      "stateMutability": "view",
      "type": "function"
    }
  ],
  "bytecode": "0x608060405260016000806101000a81548160ff0219169083151502179055506000600355604051602080620044878339810180604052810190808051906020019092919050505033600260006101000a81548173ffffffffffffffffffffffffffffffffffffffff021916908373ffffffffffffffffffffffffffffffffffffffff160217905550620000a181620000a8640100000000026401000000009004565b50620003a8565b6000809054906101000a900460ff16151562000152576040517f08c379a00000000000000000000000000000000000000000000000000000000081526004018080602001828103825260258152602001807f436f6e74726163742069732063757272656e746c79206e6f74206f706572617481526020017f696f6e616c00000000000000000000000000000000000000000000000000000081525060400191505060405180910390fd5b600260009054906101000a900473ffffffffffffffffffffffffffffffffffffffff1673ffffffffffffffffffffffffffffffffffffffff163373ffffffffffffffffffffffffffffffffffffffff161415156200023e576040517f08c379a00000000000000000000000000000000000000000000000000000000081526004018080602001828103825260218152602001807f556e617574686f72697a656420746f2075736520746869732066756e6374696f81526020017f6e0000000000000000000000000000000000000000000000000000000000000081525060400191505060405180910390fd5b6060604051908101604052806001151581526020016000151581526020018273ffffffffffffffffffffffffffffffffffffffff16815250600460008373ffffffffffffffffffffffffffffffffffffffff1673ffffffffffffffffffffffffffffffffffffffff16815260200190815260200160002060008201518160000160006101000a81548160ff02191690831515021790555060208201518160000160016101000a81548160ff02191690831515021790555060408201518160000160026101000a81548173ffffffffffffffffffffffffffffffffffffffff021916908373ffffffffffffffffffffffffffffffffffffffff16021790555090505060058190806001815401808255809150509060018203906000526020600020016000909192909190916101000a81548173ffffffffffffffffffffffffffffffffffffffff021916908373ffffffffffffffffffffffffffffffffffffffff1602179055505050565b6140cf80620003b86000396000f30060806040526004361061016a576000357c0100000000000000000000000000000000000000000000000000000000900463ffffffff1680630a40389c14610174578063110466ed146102045780631b37da55146102335780631bcd250a146102a25780631c7ccb69146102e55780632c388d5d146103865780633fcf1cf4146103c957806351cff8d9146104045780635689b2491461043a578063609ab31d146104955780636f9fb98a1461053257806374cf8a841461055d57806375eb2ad1146105d05780637fdf2e4d146105fb5780638489a87e14610660578063a3e76c0f146106b7578063b9e5a443146106c1578063c3c5a547146106ec578063c55462f614610747578063c6a5d72f1461079e578063c7ba50181461085b578063cd02ac68146108d6578063cd905dff14610925578063dcc5936f14610954578063e16b4a9b146109ed578063eee9239514610a1c578063f0e8365414610a69578063fe9fbb8014610ac4575b610172610b1f565b005b34801561018057600080fd5b506101ad600480360381019080803590602001908201803590602001919091929391929390505050610bca565b6040518080602001828103825283818151815260200191508051906020019060200280838360005b838110156101f05780820151818401526020810190506101d5565b505050509050019250505060405180910390f35b34801561021057600080fd5b50610231600480360381019080803515159060200190929190505050610def565b005b34801561023f57600080fd5b5061028c600480360381019080803590602001908201803590602001919091929391929390803573ffffffffffffffffffffffffffffffffffffffff169060200190929190505050610ed0565b6040518082815260200191505060405180910390f35b3480156102ae57600080fd5b506102e3600480360381019080803573ffffffffffffffffffffffffffffffffffffffff16906020019092919050505061116c565b005b3480156102f157600080fd5b5061036c600480360381019080803573ffffffffffffffffffffffffffffffffffffffff169060200190929190803590602001908201803590602001908080601f016020809104026020016040519081016040528093929190818152602001838380828437820191505050505050919291929050505061128c565b604051808215151515815260200191505060405180910390f35b34801561039257600080fd5b506103c7600480360381019080803573ffffffffffffffffffffffffffffffffffffffff1690602001909291905050506112bc565b005b3480156103d557600080fd5b506104026004803603810190808035906020019082018035906020019190919293919293905050506113db565b005b610438600480360381019080803573ffffffffffffffffffffffffffffffffffffffff169060200190929190505050611958565b005b34801561044657600080fd5b5061047b600480360381019080803573ffffffffffffffffffffffffffffffffffffffff169060200190929190505050611b96565b604051808215151515815260200191505060405180910390f35b3480156104a157600080fd5b5061051c600480360381019080803573ffffffffffffffffffffffffffffffffffffffff169060200190929190803590602001908201803590602001908080601f0160208091040260200160405190810160405280939291908181526020018383808284378201915050505050509192919290505050611bef565b6040518082815260200191505060405180910390f35b34801561053e57600080fd5b50610547611f47565b6040518082815260200191505060405180910390f35b34801561056957600080fd5b506105b6600480360381019080803573ffffffffffffffffffffffffffffffffffffffff169060200190929190803590602001908201803590602001919091929391929390505050611ffa565b604051808215151515815260200191505060405180910390f35b3480156105dc57600080fd5b506105e5612299565b6040518082815260200191505060405180910390f35b34801561060757600080fd5b5061065e600480360381019080803590602001908201803590602001919091929391929390803573ffffffffffffffffffffffffffffffffffffffff16906020019092919080359060200190929190505050612361565b005b34801561066c57600080fd5b506106a1600480360381019080803573ffffffffffffffffffffffffffffffffffffffff16906020019092919050505061262b565b6040518082815260200191505060405180910390f35b6106bf610b1f565b005b3480156106cd57600080fd5b506106d66127a7565b6040518082815260200191505060405180910390f35b3480156106f857600080fd5b5061072d600480360381019080803573ffffffffffffffffffffffffffffffffffffffff169060200190929190505050612860565b604051808215151515815260200191505060405180910390f35b34801561075357600080fd5b50610788600480360381019080803573ffffffffffffffffffffffffffffffffffffffff1690602001909291905050506128b9565b6040518082815260200191505060405180910390f35b3480156107aa57600080fd5b50610859600480360381019080803590602001908201803590602001908080601f016020809104026020016040519081016040528093929190818152602001838380828437820191505050505050919291929080359060200190929190803573ffffffffffffffffffffffffffffffffffffffff169060200190929190803573ffffffffffffffffffffffffffffffffffffffff16906020019092919080359060200190929190505050612a73565b005b34801561086757600080fd5b506108bc600480360381019080803573ffffffffffffffffffffffffffffffffffffffff169060200190929190803573ffffffffffffffffffffffffffffffffffffffff169060200190929190505050613228565b604051808215151515815260200191505060405180910390f35b3480156108e257600080fd5b5061090f60048036038101908080359060200190820180359060200191909192939192939050505061372e565b6040518082815260200191505060405180910390f35b34801561093157600080fd5b5061093a6138cf565b604051808215151515815260200191505060405180910390f35b34801561096057600080fd5b50610995600480360381019080803573ffffffffffffffffffffffffffffffffffffffff1690602001909291905050506138e5565b6040518084151515158152602001831515151581526020018273ffffffffffffffffffffffffffffffffffffffff1673ffffffffffffffffffffffffffffffffffffffff168152602001935050505060405180910390f35b3480156109f957600080fd5b50610a02613949565b604051808215151515815260200191505060405180910390f35b348015610a2857600080fd5b50610a6760048036038101908080359060200190929190803573ffffffffffffffffffffffffffffffffffffffff1690602001909291905050506139fb565b005b348015610a7557600080fd5b50610aaa600480360381019080803573ffffffffffffffffffffffffffffffffffffffff169060200190929190505050613c83565b604051808215151515815260200191505060405180910390f35b348015610ad057600080fd5b50610b05600480360381019080803573ffffffffffffffffffffffffffffffffffffffff169060200190929190505050613cae565b604051808215151515815260200191505060405180910390f35b6000809054906101000a900460ff161515610bc8576040517f08c379a00000000000000000000000000000000000000000000000000000000081526004018080602001828103825260258152602001807f436f6e74726163742069732063757272656e746c79206e6f74206f706572617481526020017f696f6e616c00000000000000000000000000000000000000000000000000000081525060400191505060405180910390fd5b565b60606000809054906101000a900460ff161515610c75576040517f08c379a00000000000000000000000000000000000000000000000000000000081526004018080602001828103825260258152602001807f436f6e74726163742069732063757272656e746c79206e6f74206f706572617481526020017f696f6e616c00000000000000000000000000000000000000000000000000000081525060400191505060405180910390fd5b60011515600160003373ffffffffffffffffffffffffffffffffffffffff1673ffffffffffffffffffffffffffffffffffffffff16815260200190815260200160002060009054906101000a900460ff161515141515610d3d576040517f08c379a00000000000000000000000000000000000000000000000000000000081526004018080602001828103825260188152602001807f43616c6c6572206973206e6f7420617574686f72697a6564000000000000000081525060200191505060405180910390fd5b60078383604051808383808284378201915050925050509081526020016040518091039020805480602002602001604051908101604052809291908181526020018280548015610de257602002820191906000526020600020905b8160009054906101000a900473ffffffffffffffffffffffffffffffffffffffff1673ffffffffffffffffffffffffffffffffffffffff1681526020019060010190808311610d98575b5050505050905092915050565b600260009054906101000a900473ffffffffffffffffffffffffffffffffffffffff1673ffffffffffffffffffffffffffffffffffffffff163373ffffffffffffffffffffffffffffffffffffffff16141515610eb4576040517f08c379a000000000000000000000000000000000000000000000000000000000815260040180806020018281038252601c8152602001807f43616c6c6572206973206e6f7420636f6e7472616374206f776e65720000000081525060200191505060405180910390fd5b806000806101000a81548160ff02191690831515021790555050565b6000806000809054906101000a900460ff161515610f7c576040517f08c379a00000000000000000000000000000000000000000000000000000000081526004018080602001828103825260258152602001807f436f6e74726163742069732063757272656e746c79206e6f74206f706572617481526020017f696f6e616c00000000000000000000000000000000000000000000000000000081525060400191505060405180910390fd5b60011515600160003373ffffffffffffffffffffffffffffffffffffffff1673ffffffffffffffffffffffffffffffffffffffff16815260200190815260200160002060009054906101000a900460ff161515141515611044576040517f08c379a00000000000000000000000000000000000000000000000000000000081526004018080602001828103825260188152602001807f43616c6c6572206973206e6f7420617574686f72697a6564000000000000000081525060200191505060405180910390fd5b6000915060016110868487878080601f016020809104026020016040519081016040528093929190818152602001838380828437820191505050505050611bef565b03905060001515600660008573ffffffffffffffffffffffffffffffffffffffff1673ffffffffffffffffffffffffffffffffffffffff168152602001908152602001600020600101828154811015156110dc57fe5b90600052602060002090602091828204019190069054906101000a900460ff161515141561116157600660008473ffffffffffffffffffffffffffffffffffffffff1673ffffffffffffffffffffffffffffffffffffffff1681526020019081526020016000206002018181548110151561115357fe5b906000526020600020015491505b819150509392505050565b600260009054906101000a900473ffffffffffffffffffffffffffffffffffffffff1673ffffffffffffffffffffffffffffffffffffffff163373ffffffffffffffffffffffffffffffffffffffff16141515611231576040517f08c379a000000000000000000000000000000000000000000000000000000000815260040180806020018281038252601c8152602001807f43616c6c6572206973206e6f7420636f6e7472616374206f776e65720000000081525060200191505060405180910390fd5b6000600160008373ffffffffffffffffffffffffffffffffffffffff1673ffffffffffffffffffffffffffffffffffffffff16815260200190815260200160002060006101000a81548160ff02191690831515021790555050565b6000806112998484611bef565b905060008111156112ad57600191506112b2565b600091505b8191505092915050565b600260009054906101000a900473ffffffffffffffffffffffffffffffffffffffff1673ffffffffffffffffffffffffffffffffffffffff163373ffffffffffffffffffffffffffffffffffffffff16141515611381576040517f08c379a000000000000000000000000000000000000000000000000000000000815260040180806020018281038252601c8152602001807f43616c6c6572206973206e6f7420636f6e7472616374206f776e65720000000081525060200191505060405180910390fd5b60018060008373ffffffffffffffffffffffffffffffffffffffff1673ffffffffffffffffffffffffffffffffffffffff16815260200190815260200160002060006101000a81548160ff02191690831515021790555050565b606060008060008060009054906101000a900460ff16151561148b576040517f08c379a00000000000000000000000000000000000000000000000000000000081526004018080602001828103825260258152602001807f436f6e74726163742069732063757272656e746c79206e6f74206f706572617481526020017f696f6e616c00000000000000000000000000000000000000000000000000000081525060400191505060405180910390fd5b60011515600160003373ffffffffffffffffffffffffffffffffffffffff1673ffffffffffffffffffffffffffffffffffffffff16815260200190815260200160002060009054906101000a900460ff161515141515611553576040517f08c379a00000000000000000000000000000000000000000000000000000000081526004018080602001828103825260188152602001807f43616c6c6572206973206e6f7420617574686f72697a6564000000000000000081525060200191505060405180910390fd5b60078686604051808383808284378201915050925050509081526020016040518091039020805490506040519080825280602002602001820160405280156115aa5781602001602082028038833980820191505090505b509350600091506007868660405180838380828437820191505092505050908152602001604051809103902080548060200260200160405190810160405280929190818152602001828054801561165657602002820191906000526020600020905b8160009054906101000a900473ffffffffffffffffffffffffffffffffffffffff1673ffffffffffffffffffffffffffffffffffffffff168152602001906001019080831161160c575b50505050509350600090505b83518110156119505760016116c0858381518110151561167e57fe5b9060200190602002015188888080601f016020809104026020016040519081016040528093929190818152602001838380828437820191505050505050611bef565b039250600015156006600086848151811015156116d957fe5b9060200190602002015173ffffffffffffffffffffffffffffffffffffffff1673ffffffffffffffffffffffffffffffffffffffff1681526020019081526020016000206001018481548110151561172d57fe5b90600052602060002090602091828204019190069054906101000a900460ff161515141561194357600160066000868481518110151561176957fe5b9060200190602002015173ffffffffffffffffffffffffffffffffffffffff1673ffffffffffffffffffffffffffffffffffffffff168152602001908152602001600020600101848154811015156117bd57fe5b90600052602060002090602091828204019190066101000a81548160ff02191690831515021790555061187d600a61186f600f60066000898781518110151561180257fe5b9060200190602002015173ffffffffffffffffffffffffffffffffffffffff1673ffffffffffffffffffffffffffffffffffffffff1681526020019081526020016000206002018781548110151561185657fe5b9060005260206000200154613d0490919063ffffffff16565b613d3c90919063ffffffff16565b91506118e88260096000878581518110151561189557fe5b9060200190602002015173ffffffffffffffffffffffffffffffffffffffff1673ffffffffffffffffffffffffffffffffffffffff16815260200190815260200160002054613d5290919063ffffffff16565b6009600086848151811015156118fa57fe5b9060200190602002015173ffffffffffffffffffffffffffffffffffffffff1673ffffffffffffffffffffffffffffffffffffffff168152602001908152602001600020819055505b8080600101915050611662565b505050505050565b60008060009054906101000a900460ff161515611a03576040517f08c379a00000000000000000000000000000000000000000000000000000000081526004018080602001828103825260258152602001807f436f6e74726163742069732063757272656e746c79206e6f74206f706572617481526020017f696f6e616c00000000000000000000000000000000000000000000000000000081525060400191505060405180910390fd5b6000600960008473ffffffffffffffffffffffffffffffffffffffff1673ffffffffffffffffffffffffffffffffffffffff16815260200190815260200160002054111515611aba576040517f08c379a00000000000000000000000000000000000000000000000000000000081526004018080602001828103825260138152602001807f5468657265206973206e6f207061796f75742e0000000000000000000000000081525060200191505060405180910390fd5b600960008373ffffffffffffffffffffffffffffffffffffffff1673ffffffffffffffffffffffffffffffffffffffff1681526020019081526020016000205490506000600960008473ffffffffffffffffffffffffffffffffffffffff1673ffffffffffffffffffffffffffffffffffffffff16815260200190815260200160002081905550611b5681600354613d6e90919063ffffffff16565b6003819055508173ffffffffffffffffffffffffffffffffffffffff166108fc829081150290604051600060405180830381858888f19350505050505050565b6000600460008373ffffffffffffffffffffffffffffffffffffffff1673ffffffffffffffffffffffffffffffffffffffff16815260200190815260200160002060000160019054906101000a900460ff169050919050565b6000606060006005604051908082528060200260200182016040528015611c2a57816020015b6060815260200190600190039081611c155790505b509150600660008673ffffffffffffffffffffffffffffffffffffffff1673ffffffffffffffffffffffffffffffffffffffff168152602001908152602001600020600301805480602002602001604051908101604052809291908181526020016000905b82821015611d4b578382906000526020600020018054600181600116156101000203166002900480601f016020809104026020016040519081016040528092919081815260200182805460018160011615610100020316600290048015611d375780601f10611d0c57610100808354040283529160200191611d37565b820191906000526020600020905b815481529060010190602001808311611d1a57829003601f168201915b505050505081526020019060010190611c8f565b505050509150600090505b8151811015611f3a57836040516020018082805190602001908083835b602083101515611d985780518252602082019150602081019050602083039250611d73565b6001836020036101000a0380198251168184511680821785525050505050509050019150506040516020818303038152906040526040518082805190602001908083835b602083101515611e015780518252602082019150602081019050602083039250611ddc565b6001836020036101000a0380198251168184511680821785525050505050509050019150506040518091039020600190048282815181101515611e4057fe5b906020019060200201516040516020018082805190602001908083835b602083101515611e825780518252602082019150602081019050602083039250611e5d565b6001836020036101000a0380198251168184511680821785525050505050509050019150506040516020818303038152906040526040518082805190602001908083835b602083101515611eeb5780518252602082019150602081019050602083039250611ec6565b6001836020036101000a0380198251168184511680821785525050505050509050019150506040518091039020600190041415611f2d57600181019250611f3f565b8080600101915050611d56565b600092505b505092915050565b60008060009054906101000a900460ff161515611ff2576040517f08c379a00000000000000000000000000000000000000000000000000000000081526004018080602001828103825260258152602001807f436f6e74726163742069732063757272656e746c79206e6f74206f706572617481526020017f696f6e616c00000000000000000000000000000000000000000000000000000081525060400191505060405180910390fd5b600354905090565b6000606060008060009054906101000a900460ff1615156120a9576040517f08c379a00000000000000000000000000000000000000000000000000000000081526004018080602001828103825260258152602001807f436f6e74726163742069732063757272656e746c79206e6f74206f706572617481526020017f696f6e616c00000000000000000000000000000000000000000000000000000081525060400191505060405180910390fd5b60011515600160003373ffffffffffffffffffffffffffffffffffffffff1673ffffffffffffffffffffffffffffffffffffffff16815260200190815260200160002060009054906101000a900460ff161515141515612171576040517f08c379a00000000000000000000000000000000000000000000000000000000081526004018080602001828103825260188152602001807f43616c6c6572206973206e6f7420617574686f72697a6564000000000000000081525060200191505060405180910390fd5b6007858560405180838380828437820191505092505050908152602001604051809103902080548060200260200160405190810160405280929190818152602001828054801561221657602002820191906000526020600020905b8160009054906101000a900473ffffffffffffffffffffffffffffffffffffffff1673ffffffffffffffffffffffffffffffffffffffff16815260200190600101908083116121cc575b5050505050915060009250600090505b8151811015612290578573ffffffffffffffffffffffffffffffffffffffff16828281518110151561225457fe5b9060200190602002015173ffffffffffffffffffffffffffffffffffffffff1614156122835760019250612290565b8080600101915050612226565b50509392505050565b60008060009054906101000a900460ff161515612344576040517f08c379a00000000000000000000000000000000000000000000000000000000081526004018080602001828103825260258152602001807f436f6e74726163742069732063757272656e746c79206e6f74206f706572617481526020017f696f6e616c00000000000000000000000000000000000000000000000000000081525060400191505060405180910390fd5b3073ffffffffffffffffffffffffffffffffffffffff1631905090565b60008060009054906101000a900460ff16151561240c576040517f08c379a00000000000000000000000000000000000000000000000000000000081526004018080602001828103825260258152602001807f436f6e74726163742069732063757272656e746c79206e6f74206f706572617481526020017f696f6e616c00000000000000000000000000000000000000000000000000000081525060400191505060405180910390fd5b60011515600160003373ffffffffffffffffffffffffffffffffffffffff1673ffffffffffffffffffffffffffffffffffffffff16815260200190815260200160002060009054906101000a900460ff1615151415156124d4576040517f08c379a00000000000000000000000000000000000000000000000000000000081526004018080602001828103825260188152602001807f43616c6c6572206973206e6f7420617574686f72697a6564000000000000000081525060200191505060405180910390fd5b60016125128487878080601f016020809104026020016040519081016040528093929190818152602001838380828437820191505050505050611bef565b0390506001600660008573ffffffffffffffffffffffffffffffffffffffff1673ffffffffffffffffffffffffffffffffffffffff1681526020019081526020016000206001018281548110151561256657fe5b90600052602060002090602091828204019190066101000a81548160ff0219169083151502179055506125e182600960008673ffffffffffffffffffffffffffffffffffffffff1673ffffffffffffffffffffffffffffffffffffffff16815260200190815260200160002054613d5290919063ffffffff16565b600960008573ffffffffffffffffffffffffffffffffffffffff1673ffffffffffffffffffffffffffffffffffffffff168152602001908152602001600020819055505050505050565b60008060009054906101000a900460ff1615156126d6576040517f08c379a00000000000000000000000000000000000000000000000000000000081526004018080602001828103825260258152602001807f436f6e74726163742069732063757272656e746c79206e6f74206f706572617481526020017f696f6e616c00000000000000000000000000000000000000000000000000000081525060400191505060405180910390fd5b600960008373ffffffffffffffffffffffffffffffffffffffff1673ffffffffffffffffffffffffffffffffffffffff1681526020019081526020016000205490506000600960008473ffffffffffffffffffffffffffffffffffffffff1673ffffffffffffffffffffffffffffffffffffffff16815260200190815260200160002081905550600960008373ffffffffffffffffffffffffffffffffffffffff1673ffffffffffffffffffffffffffffffffffffffff168152602001908152602001600020549050809050919050565b60008060009054906101000a900460ff161515612852576040517f08c379a00000000000000000000000000000000000000000000000000000000081526004018080602001828103825260258152602001807f436f6e74726163742069732063757272656e746c79206e6f74206f706572617481526020017f696f6e616c00000000000000000000000000000000000000000000000000000081525060400191505060405180910390fd5b600580549050905080905090565b6000600460008373ffffffffffffffffffffffffffffffffffffffff1673ffffffffffffffffffffffffffffffffffffffff16815260200190815260200160002060000160009054906101000a900460ff169050919050565b60008060009054906101000a900460ff161515612964576040517f08c379a00000000000000000000000000000000000000000000000000000000081526004018080602001828103825260258152602001807f436f6e74726163742069732063757272656e746c79206e6f74206f706572617481526020017f696f6e616c00000000000000000000000000000000000000000000000000000081525060400191505060405180910390fd5b60011515600160003373ffffffffffffffffffffffffffffffffffffffff1673ffffffffffffffffffffffffffffffffffffffff16815260200190815260200160002060009054906101000a900460ff161515141515612a2c576040517f08c379a00000000000000000000000000000000000000000000000000000000081526004018080602001828103825260188152602001807f43616c6c6572206973206e6f7420617574686f72697a6564000000000000000081525060200191505060405180910390fd5b600960008373ffffffffffffffffffffffffffffffffffffffff1673ffffffffffffffffffffffffffffffffffffffff168152602001908152602001600020549050919050565b606080606060008060009054906101000a900460ff161515612b23576040517f08c379a00000000000000000000000000000000000000000000000000000000081526004018080602001828103825260258152602001807f436f6e74726163742069732063757272656e746c79206e6f74206f706572617481526020017f696f6e616c00000000000000000000000000000000000000000000000000000081525060400191505060405180910390fd5b60011515600160003373ffffffffffffffffffffffffffffffffffffffff1673ffffffffffffffffffffffffffffffffffffffff16815260200190815260200160002060009054906101000a900460ff161515141515612beb576040517f08c379a00000000000000000000000000000000000000000000000000000000081526004018080602001828103825260188152602001807f43616c6c6572206973206e6f7420617574686f72697a6564000000000000000081525060200191505060405180910390fd5b6005604051908082528060200260200182016040528015612c2057816020015b6060815260200190600190039081612c0b5790505b5093506005604051908082528060200260200182016040528015612c535781602001602082028038833980820191505090505b5092506005604051908082528060200260200182016040528015612c865781602001602082028038833980820191505090505b50915060011515600660008973ffffffffffffffffffffffffffffffffffffffff1673ffffffffffffffffffffffffffffffffffffffff16815260200190815260200160002060000160009054906101000a900460ff1615151415612f0757612cef878a611bef565b9050600081141515612d8f576040517f08c379a00000000000000000000000000000000000000000000000000000000081526004018080602001828103825260298152602001807f50617373656e67657220616c726561647920696e737572656420666f7220746881526020017f697320666c69676874000000000000000000000000000000000000000000000081525060400191505060405180910390fd5b600660008873ffffffffffffffffffffffffffffffffffffffff1673ffffffffffffffffffffffffffffffffffffffff1681526020019081526020016000206001016000908060018154018082558091505090600182039060005260206000209060209182820401919006909192909190916101000a81548160ff02191690831515021790555050600660008873ffffffffffffffffffffffffffffffffffffffff1673ffffffffffffffffffffffffffffffffffffffff168152602001908152602001600020600201859080600181540180825580915050906001820390600052602060002001600090919290919091505550600660008873ffffffffffffffffffffffffffffffffffffffff1673ffffffffffffffffffffffffffffffffffffffff168152602001908152602001600020600301899080600181540180825580915050906001820390600052602060002001600090919290919091509080519060200190612f00929190613d87565b5050613046565b6000836000815181101515612f1857fe5b906020019060200201901515908115158152505084826000815181101515612f3c57fe5b906020019060200201818152505088846000815181101515612f5a57fe5b9060200190602002018190525060806040519081016040528060011515815260200184815260200183815260200185815250600660008973ffffffffffffffffffffffffffffffffffffffff1673ffffffffffffffffffffffffffffffffffffffff16815260200190815260200160002060008201518160000160006101000a81548160ff0219169083151502179055506020820151816001019080519060200190613007929190613e07565b506040820151816002019080519060200190613024929190613ead565b506060820151816003019080519060200190613041929190613efa565b509050505b61305b85600354613d5290919063ffffffff16565b6003819055506007896040518082805190602001908083835b6020831015156130995780518252602082019150602081019050602083039250613074565b6001836020036101000a03801982511681845116808217855250505050505090500191505090815260200160405180910390208790806001815401808255809150509060018203906000526020600020016000909192909190916101000a81548173ffffffffffffffffffffffffffffffffffffffff021916908373ffffffffffffffffffffffffffffffffffffffff160217905550506131ae8560088b6040518082805190602001908083835b60208310151561316c5780518252602082019150602081019050602083039250613147565b6001836020036101000a038019825116818451168082178552505050505050905001915050908152602001604051809103902054613d5290919063ffffffff16565b60088a6040518082805190602001908083835b6020831015156131e657805182526020820191506020810190506020830392506131c1565b6001836020036101000a038019825116818451168082178552505050505050905001915050908152602001604051809103902081905550505050505050505050565b60008060009054906101000a900460ff1615156132d3576040517f08c379a00000000000000000000000000000000000000000000000000000000081526004018080602001828103825260258152602001807f436f6e74726163742069732063757272656e746c79206e6f74206f706572617481526020017f696f6e616c00000000000000000000000000000000000000000000000000000081525060400191505060405180910390fd5b60011515600160003373ffffffffffffffffffffffffffffffffffffffff1673ffffffffffffffffffffffffffffffffffffffff16815260200190815260200160002060009054906101000a900460ff16151514151561339b576040517f08c379a00000000000000000000000000000000000000000000000000000000081526004018080602001828103825260188152602001807f43616c6c6572206973206e6f7420617574686f72697a6564000000000000000081525060200191505060405180910390fd5b8160011515600460008373ffffffffffffffffffffffffffffffffffffffff1673ffffffffffffffffffffffffffffffffffffffff16815260200190815260200160002060000160009054906101000a900460ff16151514151561348d576040517f08c379a00000000000000000000000000000000000000000000000000000000081526004018080602001828103825260228152602001807f43616c6c6572206973206e6f7420612072656769737465726564206169726c6981526020017f6e6500000000000000000000000000000000000000000000000000000000000081525060400191505060405180910390fd5b8260011515600460008373ffffffffffffffffffffffffffffffffffffffff1673ffffffffffffffffffffffffffffffffffffffff16815260200190815260200160002060000160019054906101000a900460ff161515141515613559576040517f08c379a000000000000000000000000000000000000000000000000000000000815260040180806020018281038252601e8152602001807f43616c6c6572206973206e6f7420612066756e646564206169726c696e65000081525060200191505060405180910390fd5b600460008673ffffffffffffffffffffffffffffffffffffffff1673ffffffffffffffffffffffffffffffffffffffff16815260200190815260200160002060000160009054906101000a900460ff1615151561361e576040517f08c379a000000000000000000000000000000000000000000000000000000000815260040180806020018281038252601e8152602001807f4169726c696e6520697320616c726561647920726567697374657265642e000081525060200191505060405180910390fd5b6060604051908101604052806001151581526020016000151581526020018673ffffffffffffffffffffffffffffffffffffffff16815250600460008773ffffffffffffffffffffffffffffffffffffffff1673ffffffffffffffffffffffffffffffffffffffff16815260200190815260200160002060008201518160000160006101000a81548160ff02191690831515021790555060208201518160000160016101000a81548160ff02191690831515021790555060408201518160000160026101000a81548173ffffffffffffffffffffffffffffffffffffffff021916908373ffffffffffffffffffffffffffffffffffffffff16021790555090505060019250829250505092915050565b60008060009054906101000a900460ff1615156137d9576040517f08c379a00000000000000000000000000000000000000000000000000000000081526004018080602001828103825260258152602001807f436f6e74726163742069732063757272656e746c79206e6f74206f706572617481526020017f696f6e616c00000000000000000000000000000000000000000000000000000081525060400191505060405180910390fd5b60011515600160003373ffffffffffffffffffffffffffffffffffffffff1673ffffffffffffffffffffffffffffffffffffffff16815260200190815260200160002060009054906101000a900460ff1615151415156138a1576040517f08c379a00000000000000000000000000000000000000000000000000000000081526004018080602001828103825260188152602001807f43616c6c6572206973206e6f7420617574686f72697a6564000000000000000081525060200191505060405180910390fd5b6008838360405180838380828437820191505092505050908152602001604051809103902054905092915050565b60008060009054906101000a900460ff16905090565b60046020528060005260406000206000915090508060000160009054906101000a900460ff16908060000160019054906101000a900460ff16908060000160029054906101000a900473ffffffffffffffffffffffffffffffffffffffff16905083565b60008060009054906101000a900460ff1615156139f4576040517f08c379a00000000000000000000000000000000000000000000000000000000081526004018080602001828103825260258152602001807f436f6e74726163742069732063757272656e746c79206e6f74206f706572617481526020017f696f6e616c00000000000000000000000000000000000000000000000000000081525060400191505060405180910390fd5b6001905090565b6000809054906101000a900460ff161515613aa4576040517f08c379a00000000000000000000000000000000000000000000000000000000081526004018080602001828103825260258152602001807f436f6e74726163742069732063757272656e746c79206e6f74206f706572617481526020017f696f6e616c00000000000000000000000000000000000000000000000000000081525060400191505060405180910390fd5b60011515600160003373ffffffffffffffffffffffffffffffffffffffff1673ffffffffffffffffffffffffffffffffffffffff16815260200190815260200160002060009054906101000a900460ff161515141515613b6c576040517f08c379a00000000000000000000000000000000000000000000000000000000081526004018080602001828103825260188152602001807f43616c6c6572206973206e6f7420617574686f72697a6564000000000000000081525060200191505060405180910390fd5b6001600460008373ffffffffffffffffffffffffffffffffffffffff1673ffffffffffffffffffffffffffffffffffffffff16815260200190815260200160002060000160016101000a81548160ff021916908315150217905550613bdc82600354613d5290919063ffffffff16565b60038190555060058190806001815401808255809150509060018203906000526020600020016000909192909190916101000a81548173ffffffffffffffffffffffffffffffffffffffff021916908373ffffffffffffffffffffffffffffffffffffffff160217905550507f49b4c3f4344f33413322c03885f90f29e906bd8eb0cb2c3d815ee1ad2b3c989c826040518082815260200191505060405180910390a15050565b60066020528060005260406000206000915090508060000160009054906101000a900460ff16905081565b6000600160008373ffffffffffffffffffffffffffffffffffffffff1673ffffffffffffffffffffffffffffffffffffffff16815260200190815260200160002060009054906101000a900460ff169050919050565b600080831415613d175760009050613d36565b8183029050818382811515613d2857fe5b04141515613d3257fe5b8090505b92915050565b60008183811515613d4957fe5b04905092915050565b60008183019050828110151515613d6557fe5b80905092915050565b6000828211151515613d7c57fe5b818303905092915050565b828054600181600116156101000203166002900490600052602060002090601f016020900481019282601f10613dc857805160ff1916838001178555613df6565b82800160010185558215613df6579182015b82811115613df5578251825591602001919060010190613dda565b5b509050613e039190613f5a565b5090565b82805482825590600052602060002090601f01602090048101928215613e9c5791602002820160005b83821115613e6d57835183826101000a81548160ff0219169083151502179055509260200192600101602081600001049283019260010302613e30565b8015613e9a5782816101000a81549060ff0219169055600101602081600001049283019260010302613e6d565b505b509050613ea99190613f7f565b5090565b828054828255906000526020600020908101928215613ee9579160200282015b82811115613ee8578251825591602001919060010190613ecd565b5b509050613ef69190613f5a565b5090565b828054828255906000526020600020908101928215613f49579160200282015b82811115613f48578251829080519060200190613f38929190613faf565b5091602001919060010190613f1a565b5b509050613f56919061402f565b5090565b613f7c91905b80821115613f78576000816000905550600101613f60565b5090565b90565b613fac91905b80821115613fa857600081816101000a81549060ff021916905550600101613f85565b5090565b90565b828054600181600116156101000203166002900490600052602060002090601f016020900481019282601f10613ff057805160ff191683800117855561401e565b8280016001018555821561401e579182015b8281111561401d578251825591602001919060010190614002565b5b50905061402b9190613f5a565b5090565b61405891905b80821115614054576000818161404b919061405b565b50600101614035565b5090565b90565b50805460018160011615610100020316600290046000825580601f1061408157506140a0565b601f01602090049060005260206000209081019061409f9190613f5a565b5b505600a165627a7a723058204be085e293e59488d8876bd217d89dfd937247b4158e454b7634a9bc93b29e9d0029",
  "source": "pragma solidity >=0.4.24;\n\nimport \"../node_modules/openzeppelin-solidity/contracts/math/SafeMath.sol\";\n\ncontract FlightSuretyData {\n    using SafeMath for uint256;\n\n    /********************************************************************************************/\n    /*                                       DATA VARIABLES                                     */\n    /********************************************************************************************/\n\n    //Operation variables\n    bool private operational = true;            // Blocks all state changes throughout the contract if false\n    \n    mapping(address => bool) AuthorizedCallers;\n\n    address private contractOwner;                                      // Account used to deploy contract\n    uint256 private contractBalance = 0 ether;  //10 because first airline is registered and funded when contract is deployed\n\n    struct Airline {   //Airline Struct\n        bool isRegistered;\n        bool isFunded;\n        address airlineAddress;\n    }\n    mapping(address => Airline) public RegisteredAirlines; //Registered airlines mapping\n    address[] private registered; //Array of airline addresses\n\n\n    struct Passenger {   //Passenger Struct\n        bool isInsured;\n        bool[] isPaid;\n        uint256[] insurancePaid;\n        string[] flights;\n    }\n    mapping(address => Passenger) public InsuredPassengers; //Passenger mapping\n\n    //Flight to passenger mapping\n    mapping(string => address[]) FlightPassengers;\n\n    //Flight to totalInsured Amount mapping e.g. UA047 => 5 ETH\n    mapping(string => uint256) private FlightInsuredAmount;\n\n    //Passenger address to insurance payment. Stores Insurance payouts for passengers\n    mapping(address => uint256) private InsurancePayment;\n\n    /********************************************************************************************/\n    /*                                       EVENT DEFINITIONS                                  */\n    /********************************************************************************************/\n\n\n    /**\n    * @dev Constructor\n    *      The deploying account becomes contractOwner\n    */\n    constructor(address _airline) public payable\n    {\n        contractOwner = msg.sender;\n        registerFirstAirline(_airline);        \n    }\n\n\n    /*Events */\n    event Receive(uint amt);\n\n    /********************************************************************************************/\n    /*                                       FUNCTION MODIFIERS                                 */\n    /********************************************************************************************/\n\n    // Modifiers help avoid duplication of code. They are typically used to validate something\n    // before a function is allowed to be executed.\n\n    /**\n    * @dev Modifier that requires the \"operational\" boolean variable to be \"true\"\n    *      This is used on all state changing functions to pause the contract in \n    *      the event there is an issue that needs to be fixed\n    */\n    modifier requireIsOperational() \n    {\n        require(operational, \"Contract is currently not operational\");\n        _;  // All modifiers require an \"_\" which indicates where the function body will be added\n    }\n\n    /**\n    * @dev Modifier that requires the \"ContractOwner\" account to be the function caller\n    */\n    modifier requireContractOwner()\n    {\n        require(msg.sender == contractOwner, \"Caller is not contract owner\");\n        _;\n    }\n\n    /**\n    * @dev Modifier that requires the \"ContractOwner\" account to be the function caller\n    */\n    modifier requireAuthorizedCaller()\n    {\n        require(AuthorizedCallers[msg.sender] == true, \"Caller is not authorized\");\n        _;\n    }\n\n    /**\n    * @dev Modifier that requires the caller is a registered airline\n    */\n    modifier requireRegisteredAirline(address _airline)\n    {\n        require(RegisteredAirlines[_airline].isRegistered == true, \"Caller is not a registered airline\");\n        _;\n    }\n\n    /**\n    * @dev Modifier that requires the caller is a funded airline\n    */\n    modifier requireFundedAirline(address _airline)\n    {\n        require(RegisteredAirlines[_airline].isFunded == true, \"Caller is not a funded airline\");\n        _;\n    }\n\n     /**\n    * @dev Modifier that requires the caller withdraw less than or equal to owed\n    */\n    modifier checkAmount(address passenger) {\n        require(InsurancePayment[passenger] > 0, \"There is no payout.\");\n        _;\n        InsurancePayment[passenger] = 0;\n        passenger.transfer(InsurancePayment[passenger]);\n    }\n\n    /********************************************************************************************/\n    /*                                       UTILITY FUNCTIONS                                  */\n    /********************************************************************************************/\n\n    /**\n    * @dev Get operating status of contract\n    *\n    * @return A bool that is the current operating status\n    */      \n    function isOperational() public view returns(bool) \n    {\n        return operational;\n    }\n\n    /**\n    * @dev Authorize the calling contract\n    */      \n    function authorizeCaller(address _caller) public requireContractOwner\n    {\n        AuthorizedCallers[_caller] = true;\n    }\n\n    //Check if caller is authorized\n    function isAuthorized(address _caller) public view returns(bool) \n    {\n        return AuthorizedCallers[_caller];\n    }\n\n    //De-authorizes a caller\n    function deAuthorizeCaller(address _caller) public requireContractOwner\n    {\n        AuthorizedCallers[_caller] = false;\n    }\n\n    /**\n    * @dev check if airline is registered\n    *\n    * @return A bool \n    */      \n    function isRegistered(address airline) public view returns(bool) \n    {\n        return RegisteredAirlines[airline].isRegistered;\n    }\n\n    /**\n    * @dev check if airline is funded\n    *\n    * @return A bool \n    */      \n    function isFunded(address airline) public view returns(bool) \n    {\n        return RegisteredAirlines[airline].isFunded;\n    }\n\n    /**\n    * @dev check if passenger is insured\n    *\n    * @return A bool \n    */      \n    function isInsured(address passenger, string memory flight) public view returns(bool success) \n    {\n        //success = false;\n        uint index = getFlightIndex(passenger, flight);\n        if(index > 0) \n        {\n            success = true;\n        }else {\n            success = false;\n        }\n        return success;\n    }\n\n    /**\n    * @dev Sets contract operations on/off\n    *\n    * When operational mode is disabled, all write transactions except for this one will fail\n    */    \n    function setOperatingStatus\n        (\n            bool mode\n        ) \n        external\n        requireContractOwner\n    {\n        operational = mode;\n       \n    }\n\n    /********************************************************************************************/\n    /*                                     SMART CONTRACT FUNCTIONS                             */\n    /********************************************************************************************/\n    function registerFirstAirline (address _airline) internal requireIsOperational\n    {\n        require(msg.sender == contractOwner, \"Unauthorized to use this function\");\n        RegisteredAirlines[_airline] = Airline({isRegistered: true, isFunded: false, airlineAddress: _airline});\n        registered.push(_airline);\n    }\n\n   /**\n    * @dev Add an airline to the registration queue\n    *      Can only be called from FlightSuretyApp contract\n    *\n    */   \n    function registerAirline\n        (\n            address _airline,\n            address caller\n        ) \n        external \n        requireIsOperational\n        requireAuthorizedCaller\n        requireRegisteredAirline(caller) //Check if caller is a registered airline\n        requireFundedAirline(caller) //Check if caller is a funded airline\n        returns\n        (\n            bool success\n        )\n    {\n        //Check if airline is already registered\n        require(!RegisteredAirlines[_airline].isRegistered, \"Airline is already registered.\");\n\n        RegisteredAirlines[_airline] = Airline({isRegistered: true, isFunded: false, airlineAddress: _airline});\n        success = true;\n        \n        return (success);\n    }\n    \n    /**\n    * @dev Get Number of airlines registered\n    *\n    */   \n    function _getRegisteredAirlinesNum() \n        external \n        view\n        requireIsOperational\n        returns\n        (\n            uint256 number\n        )\n    {\n        //Get the number of airlines registered\n        number = registered.length;\n        return number;\n    }\n\n    /**\n    * @dev Buy insurance for a flight\n    *\n    */   \n    function buy\n        (         \n            string memory flight,\n            uint256 time,\n            address passenger,\n            address sender,\n            uint256 amount                    \n        )\n        public\n        requireIsOperational\n        requireAuthorizedCaller\n    {\n        //Check if flight time is less than current time. Flight already departed\n        //require(time > now, \"Passengers cannot purchase insurance on departed or landed flights\");\n        //contractOwner.transfer(amount);\n        \n        string[] memory _flights = new string[](5);\n        bool[] memory paid = new bool[](5);\n        uint256[] memory insurance = new uint[](5);\n        uint index;\n        \n        //If passenger already insured before\n       if(InsuredPassengers[passenger].isInsured == true){\n            //check if passenger is trying to re-insure same flight\n            index = getFlightIndex(passenger, flight) ;\n            require(index == 0, \"Passenger already insured for this flight\");\n\n            //Add new flight insurance info\n            InsuredPassengers[passenger].isPaid.push(false);\n            InsuredPassengers[passenger].insurancePaid.push(amount);\n            InsuredPassengers[passenger].flights.push(flight);\n           \n        }else { \n            paid[0] = false; //set isPaid to false\n            insurance[0] = amount; //Set insurance premium amount\n            _flights[0] = flight; //Set flight \n            InsuredPassengers[passenger] = Passenger({isInsured: true, isPaid: paid, insurancePaid: insurance, flights: _flights}); \n         }\n        contractBalance = contractBalance.add(amount);\n        FlightPassengers[flight].push(passenger);\n        FlightInsuredAmount[flight] = FlightInsuredAmount[flight].add(amount);  \n    }\n\n    /**\n     *  @dev Credits payouts to insurees\n    */\n    function creditInsurees\n        (\n            string  flight\n        )\n        external\n        requireIsOperational\n        requireAuthorizedCaller\n    {\n        //require(FlightInsuredAmount[flight] <= contractBalance, \"Not enough balance to pay insurees\");\n\n        address[] memory passengers = new address[](FlightPassengers[flight].length);\n        uint index;\n        uint amount = 0;\n        passengers = FlightPassengers[flight];\n\n        for(uint i = 0; i < passengers.length; i++){\n            index = getFlightIndex(passengers[i], flight) - 1;\n            if(InsuredPassengers[passengers[i]].isPaid[index] == false){\n                InsuredPassengers[passengers[i]].isPaid[index] = true;\n                amount = (InsuredPassengers[passengers[i]].insurancePaid[index]).mul(15).div(10);\n                InsurancePayment[passengers[i]] = InsurancePayment[passengers[i]].add(amount); \n            }\n        } \n    }\n\n    function getPassengersInsured\n        (\n            string flight\n        )\n        external\n        requireIsOperational\n        requireAuthorizedCaller\n        returns(address[] passengers)\n    {\n        return FlightPassengers[flight];\n    }\n\n    function GetInsuredAmount\n        (\n            string  flight,\n            address passenger\n        )\n        external\n        requireIsOperational\n        requireAuthorizedCaller\n        returns(uint amount)\n    {\n        amount = 0;\n        \n        uint index = getFlightIndex(passenger, flight) - 1;\n        if(InsuredPassengers[passenger].isPaid[index] == false)\n        {\n            amount = InsuredPassengers[passenger].insurancePaid[index];\n        } \n        return amount;\n    }\n\n    function SetInsuredAmount\n        (\n            string  flight,\n            address passenger,\n            uint amount\n        )\n        external\n        requireIsOperational\n        requireAuthorizedCaller\n    {\n        uint index = getFlightIndex(passenger, flight) - 1;\n        InsuredPassengers[passenger].isPaid[index] = true;\n        InsurancePayment[passenger] = InsurancePayment[passenger].add(amount);\n    } \n\n     /**\n     *  @dev Get Index array of Flight\n     *\n    */\n    function getFlightIndex(address pass, string memory flight) public view returns(uint index)\n    {\n        //uint num = InsuredPassengers[pass].flights.length;\n        string[] memory flights = new string[](5);\n        flights = InsuredPassengers[pass].flights;\n        \n        for(uint i = 0; i < flights.length; i++){\n            if(uint(keccak256(abi.encodePacked(flights[i]))) == uint(keccak256(abi.encodePacked(flight)))) {\n               return(i + 1);\n           }\n        }\n\n        return(0);\n    }\n\n    /**\n     *  @dev Transfers eligible payout funds to insuree\n     *\n    */\n    function withdraw(address payee) external payable requireIsOperational \n    {\n        require(InsurancePayment[payee] > 0, \"There is no payout.\");\n        uint amount  = InsurancePayment[payee];\n        InsurancePayment[payee] = 0;\n        contractBalance = contractBalance.sub(amount);\n        payee.send(amount);\n    }\n\n   /**\n    * @dev Initial funding for the insurance. Unless there are too many delayed flights\n    *      resulting in insurance payouts, the contract should be self-sustaining\n    *\n    */   \n    function fund\n        (   \n            uint256 fundAmt,\n            address sender\n        )\n        public\n        requireIsOperational\n        requireAuthorizedCaller\n    {\n       \n        RegisteredAirlines[sender].isFunded = true;\n        contractBalance = contractBalance.add(fundAmt);\n        registered.push(sender);\n        emit Receive(fundAmt);\n    }\n\n    function getFlightKey\n        (\n            address airline,\n            string memory flight,\n            uint256 timestamp\n        )\n        pure\n        internal\n        returns(bytes32) \n    {\n        return keccak256(abi.encodePacked(airline, flight, timestamp));\n    }\n\n    function getFlightsInsured\n        (\n        address passenger,\n        string flight\n        )\n        external \n        view\n        requireIsOperational\n        requireAuthorizedCaller\n        returns\n        (\n            bool status\n        )\n    {\n        address[] memory passengers = FlightPassengers[flight];\n        status = false;\n        for(uint i = 0; i < passengers.length; i++){\n            if(passengers[i] == passenger){\n                status = true;\n                break;\n            }\n        }\n    }\n\n    function getFlightAmountInsured\n        (\n            string flight\n        )\n        external \n        view \n        requireIsOperational \n        requireAuthorizedCaller\n        returns\n        (\n            uint amount\n        )\n    {\n        amount = FlightInsuredAmount[flight];\n    }\n\n    function getPassengerCredits\n        (\n            address passenger\n        )\n        external\n        view\n        requireIsOperational\n        requireAuthorizedCaller\n        returns\n        (\n            uint amount\n        )\n    {\n        return InsurancePayment[passenger];\n    }\n\n    function getContractBalance() external view requireIsOperational returns(uint balance)\n    {\n        return contractBalance;\n    }\n\n    function getAddressBalance() public view requireIsOperational returns(uint balance)\n    {\n        return address(this).balance;\n    }\n\n    function receive() public payable requireIsOperational\n    {\n\n    }\n\n    //Function is in place for testing purposes only\n    function testFunction() public view requireIsOperational returns(bool success)\n    {\n        success = true;\n    }\n\n    function testFunction2(address passenger) public view requireIsOperational returns(uint amount)\n    {\n       //success = InsuredPassengers[passen].isInsured;\n        //pass = InsuredPassengers[passen];\n        //flights = InsuredPassengers[passen].flights[0];\n        //return FlightPassengers[flight][0];\n        amount  = InsurancePayment[passenger];\n        InsurancePayment[passenger] = 0;\n        amount  = InsurancePayment[passenger];\n        //contractBalance = contractBalance.sub(amount);\n        //amount = contractBalance;\n        //index = index.add(1);\n        //InsurancePayment[FlightPassengers[flight][0]].add(1);\n        return amount;\n    }\n\n    \n    /**\n    * @dev Fallback function for funding smart contract.\n    *\n    */\n    function() \n        external \n        payable \n    {\n        receive();\n    }\n}\n\n",
  "sourcePath": "/Users/moathh/Desktop/GitHub_Mo/Udacity_BlockChain_Developer_Projects/FlightSurety-2/contracts/FlightSuretyData.sol",
  "compiler": {
    "name": "solc",
    "version": "0.4.26+commit.4563c3fc.Emscripten.clang"
  },
  "schemaVersion": "3.4.6",
  "updatedAt": "2022-03-30T01:31:24.655Z",
  "devdoc": {
    "methods": {
      "_getRegisteredAirlinesNum()": {
        "details": "Get Number of airlines registered    "
      },
      "authorizeCaller(address)": {
        "details": "Authorize the calling contract"
      },
      "buy(string,uint256,address,address,uint256)": {
        "details": "Buy insurance for a flight    "
      },
      "creditInsurees(string)": {
        "details": "Credits payouts to insurees"
      },
      "fund(uint256,address)": {
        "details": "Initial funding for the insurance. Unless there are too many delayed flights     resulting in insurance payouts, the contract should be self-sustaining    "
      },
      "getFlightIndex(address,string)": {
        "details": "Get Index array of Flight    "
      },
      "isFunded(address)": {
        "details": "check if airline is funded",
        "return": "A bool "
      },
      "isInsured(address,string)": {
        "details": "check if passenger is insured",
        "return": "A bool "
      },
      "isOperational()": {
        "details": "Get operating status of contract",
        "return": "A bool that is the current operating status"
      },
      "isRegistered(address)": {
        "details": "check if airline is registered",
        "return": "A bool "
      },
      "registerAirline(address,address)": {
        "details": "Add an airline to the registration queue     Can only be called from FlightSuretyApp contract    "
      },
      "setOperatingStatus(bool)": {
        "details": "Sets contract operations on/off    * When operational mode is disabled, all write transactions except for this one will fail"
      },
      "withdraw(address)": {
        "details": "Transfers eligible payout funds to insuree    "
      }
    }
  },
  "userdoc": {
    "methods": {}
  }
}